S0150000436174636854686542616E616E612E7333379A
S1130000001000206D060000F5190000F51900002D
S1130010F5190000F5190000F5190000F5190000A4
S1130020F5190000F5190000F5190000F519000094
S1130030F5190000F5190000F5190000F519000084
S1130040F519000065090000F5190000F519000014
S1130050F5190000F5190000F5190000F519000064
S1130060F5190000F5190000F519000089090000D0
S1130070F5190000F5190000F5190000F519000044
S1130080F5190000F5190000F5190000F519000034
S1130090F5190000F5190000F5190000F519000024
S11300A0F5190000F5190000F5190000F519000014
S11300B0F5190000F5190000F5190000F519000004
S11300C0F5190000F5190000F5190000F5190000F4
S11300D0F5190000F5190000F51900000348044B58
S11300E0834202D0034B03B118477047F410002039
S11300F0F4100020000000000548064B1B1AD90F1D
S113010001EBA301491002D0034B03B11847704718
S1130110F4100020F41000200000000010B5064C7C
S1130120237843B9FFF7DAFF044B13B10448AFF364
S113013000800123237010BD221300200000000062
S11301403C21000008B5054B1BB105490548AFF338
S11301500080BDE80840FFF7CFBF00BF00000000EB
S1130160F41000203C210000A3F5803A704700BF42
S1130170174B002B08BF134B9D46FFF7F5FF0021DB
S11301808B460F461348144A121A01F0E9FC0E4B31
S1130190002B00D098470D4B002B00D0984700202F
S11301A0002104000D000D48002802D00C48AFF3D4
S11301B0008001F09DFB2000290001F0D9FB01F033
S11301C085FB00BF000008000000000000000000E4
S11301D000100020F4100020241300200000000070
S11301E000000000024B03449B001868704700BFE6
S11301F0800683100A4B0B481A6830F812106FF30C
S1130200C30120F812101A6801321A601A6830F813
S1130210123043F0080320F8123000F02FB800BF6A
S113022000100020141300200A4B0B481A6830F801
S113023012106FF3C30120F812101A68013A1A6001
S11302401A6830F8123043F0080320F8123000F036
S113025015B800BF001000201413002008B5054B8A
S11302600820197800F046F9034B1868BDE80840E7
S113027000F0DEB8241000200C110020054B0648C5
S11302801A6830F8123043F0080320F8123000F0F6
S113029045B900BF001000201413002010B501213F
S11302A0084800F065FD012302220621052001F023
S11302B09FF8BDE81040012302220721052001F028
S11302C097B800BF00D20400024A536E0342FCD127
S11302D0704700BF00A0084010B50022284C10460B
S11302E0214601F0BDF921460022012001F0B8F9B0
S11302F021460022022001F0B3F921460022032006
S113030001F0AEF921460022042001F0A9F92146AA
S11303100022052001F0A4F921460022062001F064
S11303209FF921460022072001F09AF90022FF21BB
S1130330104601F0F1F90022FF21012001F0ECF94F
S11303400022FF21022001F0E7F90022FF2103200F
S113035001F0E2F90022FF21042001F0DDF900227E
S1130360FF21052001F0D8F90022FF21062001F029
S1130370D3F9BDE810400022FF21072001F0CCB9D9
S113038000F00FF010B501210446224800F0F0FC03
S11303900321214800F07AFE4021204800F0CCFBE4
S11303A0012000F0BBFD01211D4800F0E1FC1D4BC4
S11303B01D489A6A00229A6201F078F80121082007
S11303C001F0AAF80121102001F0A6F801218020F3
S11303D001F0A2F801214FF4807001F09DF8012191
S11303E04FF4007001F098F864B14FF4402001F02C
S11303F0E7F94FF4803001F081F80C4AD36F43F0F1
S11304000803D367FFF768FFBDE810404FF0FF30E3
S1130410FFF75ABFD0433E0002001E0080002A00AE
S113042000362C0000A00840E01B000000800C40B7
S11304302DE9F84F42F20E73984204464BDC294BE7
S1130440984204DB002803DB4FF0000A06E01C4658
S1130450204601F081FB4FF0010A044601254FF0CC
S1130460FF30FFF731FF204B00271D6601F08AFAA9
S11304704FF00A09BAF1000F01D0032F30D094FBDA
S1130480F5F393FBF9F209FB12339BB20E264FF0FE
S11304900008164A32F813B0154B06FB07364BFA20
S11304A008F2D30706D5012296F8CB1096F8C400BB
S11304B001F03EF808F10108B8F1070F06F1010652
S11304C0EDD10137042F09FB05F5D3D10022064BEA
S11304D01A66BDE8F88F4FF0000A42F20F74BDE7C8
S11304E01023D3E719FCFFFF00A00840F41B000011
S11304F0161C00000E280A4603468BBF002105493E
S1130500084608569CBF0449C95602B1012201F0AD
S11305100FB800BFCF1B0000C01B00002DE9F04145
S11305200746124B5C6E002CFCD10122DFF84080A0
S11305301A6646460025334637F8142030782A4197
S113054012F0010218BF0122997B013500F0F0FF7F
S11305500E2D06F10106EED10134072C08F11C081A
S1130560E7D10022014B1A66BDE8F08100A00840E3
S11305702510002010B500F05BFD01210F4800F0AC
S1130580F7FB01220020114600F026FD01220C4C4D
S11305901146A36A002023F4803323F0030343F0BD
S11305A00203A36200F018FDA36A002023F4801361
S11305B023F00C0343F00803A36210BDD0433E00B4
S11305C000800C4013B50122164B1A6401F02AF97D
S11305D0044601A801F0FEF80F2C12D99DF804304E
S11305E0022B0ED99DF80520022A01D1042B08D034
S11305F00D4AD2F8C03023F0500343F01003C2F880
S1130600C03001F045F900F02BF801F07CFA01F05C
S113061029F9FFF7AFFF01F015F902B0BDE810406A
S113062000F012B800000C4000800C4008B50448EB
S113063001F0E3F9BDE80840024801F0DEB900BF6B
S11306402C1E0000141E000008B50121034800F010
S11306508FFBBDE8084001F0BBB900BF00D2040025
S11306600121014800F084BB00D2040008B500F069
S1130670B9F8124B12498B4212D30020114B124984
S11306808B4218D3FFF774FD186850F8224058685D
S113069040F82240013298688242F5D30C33EAE7ED
S11306A00022F8E71C6844F8220001325C68A24288
S11306B0F8D30833E4E70022F8E700BF4421000040
S11306C050210000502100005021000000487047D4
S11306D0006CDC02254AD36A03F47053B3F5805FDF
S11306E03AD0B3F5005F04D0B3F5006F0BD1204BC3
S11306F000E0204B1B681D4A1068C0F382300130B3
S1130700B3FBF0F07047D36803F4E063B3F5407FC4
S113071025D008D8B3F5807F0ED0B3F5007F20D064
S1130720A3B10023E7E7B3F5806F1CD0B3F5A06F46
S1130730114B18BF0023DEE7104B114AD3F8FC100D
S1130740104BB1F1985F28BF1346D4E70B4B0E4A08
S1130750D3F8FC100D4BF4E74FF40043CBE70C4BFC
S1130760C9E70C4BC7E70C4BC5E700BF00800C4042
S11307700C10002008100020003FAB010081E00FA6
S113078040B56400C0CF6A00804F120040420F00A1
S1130790809FD500C0D8A700406F400108B5FFF77F
S11307A099FF044B5B6803F00F03D840024B1860B9
S11307B008BD00BF00800C4004100020014B1868E5
S11307C0704700BF0C100020044B1860044BDB6A18
S11307D01B0501D5FFF7E2BF704700BF0C100020D6
S11307E000800C40014A024B9A60704700000000F0
S11307F000ED00E038B5052805460C4605D80A4B3F
S113080033F81030CB40DB0704D440F2CF31074833
S113081001F0F1F824235D43054B2B4404EBC3049E
S1130820A400206838BD00BFEE1E0000441E000076
S11308301C60100237B5046801210546164800F013
S113084097FA002301226179207900F0D1FD6179C2
S11308502079FFF7CFFFB0FA80F35B092370A37907
S1130860022B15D100F03AF82A460C49607900F0C1
S11308705FF8FF28054603D18421094801F0BBF83D
S11308800123617920792A46CDE9003300F04CFD3B
S1130890002003B030BD00BF00D20400071A0000DE
S11308A0901E000070B5012504460B4E04B970BDBE
S11308B094FAA4F0B0FA80F005FA00F306EB001203
S11308C024EA03045368002BF0D0117B11B1916822
S11308D09847EBE79847E9E71011002008B50B208B
S11308E000F0B4FC28B14FF40062074BC3F8802138
S11308F01A60012000F0AAFC20B10222024BC3F8C6
S113090080211A6008BD00BF00E100E038B505464B
S11309100C4601F0E0F80022044B03EB05135C6085
S11309201A73BDE8384001F0DCB800BF1011002094
S113093070B5044615460E4601F0CDF8084B03EB9E
S113094004135A684AB9FF2C03D00122C3E9016594
S11309501A7301F0C6F8204670BDFF24F9E700BF02
S113096010110020074BD3F81001D3F814211040C4
S113097020F42A5020F02A004004400CC3F81C0143
S1130980FFF790BF00600040074BD3F81001D3F885
S11309901421104020F4AA4020F055000004000C5B
S11309A0C3F81C01FFF77EBF0060004010B5431E72
S11309B0B3F5004F044604D2B4FA84F0C0F11F002A
S11309C010BD40F69351034801F015F8002CF3D103
S11309D02020F3E7FA1E0000034B5A6DD20702D41D
S11309E01A6D1042FCD1704700800C4008B500F02D
S11309F021FF4A2805D0792803D0482818D1104867
S1130A0015E010490E48D1F8E030D1F8E820D1F8CB
S1130A10EC101B0203F47C53C1F3031102F0F00247
S1130A200B431343084AB3F5017F28BF104608BDA2
S1130A30064841F2186100F0DEFF0020F7E700BF2E
S1130A400048E80100FF0FE000366E01451F00007A
S1130A5010B50446FFF7CAFFA04207D2FFF7C6FF4E
S1130A60B4EB400F0ED80122012301E0002213460B
S1130A7005498B6705494B6823F4807343EA0223D5
S1130A804B6010BD0222EFE70000904300800C4051
S1130A90144B5A686FF0130302F00702134113F06A
S1130AA0010F114B09D1984217D8104B104A034437
S1130AB093422CBF0023012308E098420FD80B4B2C
S1130AC00B4A0344934234BF0323022305494A6873
S1130AD022F0070213434B6070470423F6E7052313
S1130AE0F4E700BF00000C400048E801FFDB0BFF07
S1130AF00024F40038B541F67133064CE56BE3632A
S1130B00FFF7E4FDADB2FFF7C3FF0DB10023E363CC
S1130B1038BD00BF00000C4038B541F67133054CB8
S1130B20E56BE363ADB2FFF7B3FF0DB10023E363FD
S1130B3038BD00BF00000C4010B5C0F30313013BE7
S1130B400C460C2B00F20581DFE813F00D000301C5
S1130B50030125000301030144006700D1000301E0
S1130B600301030138004C1E072C04D941F67C41D3
S1130B70794800F040FFFFF7BDFF784A136823F47B
S1130B80E03343EA84341460FFF708FEBDE8104004
S1130B900021FFF7C1BF4B1EB3F5007F04D341F61C
S1130BA08F416D4800F027FF2046FFF7FFFE6B4A98
S1130BB0936823F00F030343936010BD0846FFF7C7
S1130BC0F5FE664A0138536823F4807343EA002330
S1130BD05360F2E74B1EB3F5007F04D341F6A54101
S1130BE05D4800F008FFFFF785FFFFF7D7FDB0FB76
S1130BF0F4F0FFF72DFF2046FFF7D8FE574A53685D
S1130C0023F00F0303435360FFF7C8FD0021FFF7F0
S1130C1083FFBDE81040FFF71BBF514B98424FD0F4
S1130C200DD8504B984220D003F58223984232D0FD
S1130C3041F6FE41BDE81040474800F0DCBE4A4B97
S1130C409842F5D1082904D941F6F041424800F010
S1130C50D2FE0420FFF7C0FE2046FFF7A7FE3F4A5E
S1130C60936E23F00303034313E0B1F5004F04D95B
S1130C7041F6C341384800F0BEFE0420FFF7ACFE45
S1130C802046FFF793FE354A936E23F0F00343EAC0
S1130C900013936691E7B1F5004F04D941F6D141B1
S1130CA02D4800F0A8FE0420FFF796FE2046FFF72B
S1130CB07DFE2A4A936E23F4706343EA0023E8E737
S1130CC0A1F11003702B04D94FF4E751224800F02E
S1130CD092FE0420FFF780FE2046FFF767FE1F4ABE
S1130CE00438936E23F4405343EA0033D1E71F4B97
S1130CF0984206D003F50433984216D041F62451A5
S1130D0098E7082904D941F60751134800F073FE07
S1130D104020FFF761FE2046FFF748FE0F4A136F9D
S1130D2023F003030343136747E7082904D941F673
S1130D301651094800F05FFE4020FFF74DFE2046A3
S1130D40FFF734FE054A136F23F0300343EA001320
S1130D50E9E741F62A516DE7451F000000800C4089
S1130D6080002A008016120080062E0090071A00C8
S1130D7070B5C0F30323013B04460E46092B16D875
S1130D80DFE803F0302C051515272015151CFFF797
S1130D9005FDFFF75DFE154DC4F3043405F142452E
S1130DA005F5801504EBC504A400266070BD41F66A
S1130DB0B051BDE870400E4800F01DBE0D4DC0F3AB
S1130DC00434EBE7C0F3043410200B4DFFF704FEAA
S1130DD0E4E7C0F30434094D0120F7E7084DC0F3FC
S1130DE00434DBE7074DC0F30434D7E740800C40FC
S1130DF0451F000078800C4060800C4058800C40F7
S1130E0044800C4008800C4008B500F00F00013805
S1130E1006284CD8DFE800F00414254B4B333B0084
S1130E20294BDB6A03F47053B3F5805F4AD0B3F502
S1130E30005F45D0B3F5006F0CBF0420052008BD4A
S1130E40214B986A00F003000228F8D0032835D01B
S1130E50012837D09B6A13F4803F0CBF01200A207D
S1130E60EDE7194A936A03F00C03082B28D00C2BE6
S1130E7024D0042B26D0936A13F4801FEDE7124B81
S1130E801B6813F0805F0CBF07200920D7E70E4BC7
S1130E90DB6A03F46033B3F5803F11D0B3F5003F50
S1130EA010D0B3F5004F0CBF09200120C7E7074855
S1130EB042F2013100F09FFD0020C0E70620BEE7AA
S1130EC00220BCE70320BAE700800C40451F000065
S1130ED010B504461120FFF797FF042804D142F609
S1130EE073210C4800F087FD08230B4A1362136832
S1130EF0E17823F4D16323F007030B43617843EAD9
S1130F004123217843EA8103A17843EAC1131360A2
S1130F1010BD00BF451F000000800C4010B58028A4
S1130F20044604D942F60D31074800F064FD074A2F
S1130F30936D1B0706D4D36F04F0070423F0070353
S1130F402343D36710BD00BF451F000000800C4041
S1130F5070B505461120FFF757FF022804D142F669
S1130F602B31144800F047FD4FF40073124E3362E6
S1130F70AC786B78E40244EA83442B78C3F34003EF
S1130F8044EA433400F0A0FD33685C4024F07F441D
S1130F9024F4730424F4474424F0FF045C403460D4
S1130FA000F096FD2B78054A03F00103C2F8A03443
S1130FB070BD00BF451F000000800C4000008C4342
S1130FC0014B1880704700BF22100020014B18808D
S1130FD0704700BF2010002030B404280BD80E4BFB
S1130FE01C5C0E4B33F810500D4B33F810000D4BB6
S1130FF039B918620DE042F6F93130BC0A4800F004
S1131000FABC1D622AB1094B23449B001A68002ACA
S1131010FCD030BC704700BFA41F00009A1F000022
S1131020901F000000800C40451F00006001E41088
S113103008B5FFF7DBFC0130FFF70AFDFFF7BEFB45
S1131040104A114B984213684FF0020096BF23F0E8
S1131050600343F0600343F0200313600122114650
S1131060FFF7BAFFFFF746FD0222064B5A62FFF76D
S113107095FBFFF7EDFCFFF791FBBDE8084000216D
S1131080FFF74ABD00800C400048E80110B500F0AD
S11310900F04631E062B00F2CD80DFE803F0044E3C
S11310A04ECBCB91A300023908293DD8DFE801F0EB
S11310B03F42052E3C3C3C3C3500FFF797FC013099
S11310C0FFF7C6FCFFF77AFB5C4B5D4A9842136856
S11310D017D943F06003022004461360012211462D
S11310E0FFF77AFFFFF706FD554B5C62FFF756FBEF
S11310F00446FFF7ADFC2046BDE810400021FFF791
S11311000BBD23F0600343F02003E4E7FFF76EFC1C
S11311100130FFF79DFC0320E0E742F22F51BDE8C8
S11311201040484800F067BC42F23451F7E7002011
S11311300424D3E701200324D0E7013909292DD859
S1131140DFE801F02F05192C2C212C2C2C32012244
S113115000201146FFF740FF002302213848022CEB
S1131160826A23D122F4803222F003020A4342EA43
S11311700342826210BD012211461046FFF72CFF84
S113118000230121EAE7FFF709FBFFF761FC0122D5
S11311902D4B0321C3F810280023DFE742F2DD5171
S11311A0BDE700230021D9E70123FBE71B0522F457
S11311B0801243EA810322F00C0213438362D9E7CD
S11311C0072904D0092908D042F23861A7E71C4A4C
S11311D0136823F080531360CCE7194A136843F073
S11311E08053F8E703290FD0092919D002291ED109
S11311F0012200201146FFF7EFFE4022104B5A62F5
S1131200DA6AD003FCD5B5E7012211461046FFF790
S1131210E3FE60220A4B5A62DA6A9103FCD5A9E71D
S11312202022074B5A62DA6A1204FCD5A2E742F282
S1131230776174E742F26D7171E700BF0048E8011D
S113124000800C40451F00000000904310B5C3B25D
S1131250262B044604D94FF44D71074800F0CBFB0C
S1131260064B620953F8220004F01F04E040C04317
S113127000F0010010BD00BFA91F000000E100E064
S113128010B504798378094923430478CA6A43EA88
S11312900443C478407822F4803243EA440322F0C1
S11312A01F0243EA00131343CB6210BD00600C40DD
S11312B038B5052804460D4605D80A4B33F81030D6
S11312C0CB40DB0704D440F22D41074800F093FBE8
S11312D024220123544304F18044AB4004F5C04468
S11312E0236138BD8C200000441E000038B5052859
S11312F004460D4605D80A4B33F81030CB40DB07C3
S113130004D440F2FE31074800F075FB2422012387
S1131310544304F18044AB4004F5C044636138BDD8
S11313208C200000441E00002DE9F84305280646E1
S1131330154698469DF8209006D8254B33F8103072
S113134023FA01F1CB0703D4BF21224800F053FB59
S11313500127214C072D2C444FF0070107FA05F70C
S11313604FEA84040FD81D4B1D48234406FA03F2A8
S1131370994000F0B9FB1B4B44F8808CC4F80090F2
S1131380C3F81C711DE0A5F108039B00164806FA7A
S113139003F2994000F0A8FB1F2DECD991211348CA
S11313A000F029FB9121114844F8808C00F023FBC4
S11313B00C4BC4F8009091210C48C3F81C7100F048
S11313C01AFB9DF82430C4F88030BDE8F88300BFD0
S11313D08C200000F51F00006008831080DEF3BD40
S11313E000610040006000400461004041200000B2
S11313F0F8B5052805460C4616461F4605D81C4B6D
S113140033F81030CB40DB0704D44FF4B0711948E3
S113141000F0F1FA26B121462846C7B1FFF748FF8C
S11314202423072C4FF00F0105FB03F312D8A0006F
S113143006FA00F281401048184400F055FBAEB99A
S11314402146284677B1BDE8F840FFF731BFFFF7E2
S11314504DFFE5E7A4F10800800006FA00F28140A0
S11314600648E9E7BDE8F840FFF740BFF8BD00BF14
S11314708C200000F51F000004600040086000405C
S113148070B51F2905460C46164603D99121064816
S113149000F0B1FA05F1424000F5801004EBC004FD
S11314A0A400266070BD00BF4120000070B5114D3E
S11314B004466E6818B946210F4800F09CFA2B6860
S11314C0E26823F001032B606368134326F483026C
S11314D022F01F021343227A1343627A1A43238AA7
S11314E013436B6023781BB12B6843F001032B601B
S11314F070BD00BF00A0084098200000054AB0F568
S1131500803F536823F4803308BF43F4803353602F
S1131510704700BF00A00840044B9A6811B1024311
S11315209A60704722EA0002FAE700BF00A0084070
S113153037B5072805460C4613DD40F22721374806
S113154000F059FA272C04DD40F22E21334800F034
S113155052FA4FF42671314803B0BDE8304000F030
S11315604ABA27290EDD40F22E212C48019200F0C0
S113157042FA019A072DECD8DFE805F0141C242C5C
S1131580343C444C0728E4D8DFE800F00410182069
S1131590283038401F2905DC214803B0BDE830401D
S11315A0FFF76EBF1F48A4F12001F6E71F2901DCF5
S11315B01D48F2E71D48A4F12001EEE71F2901DCD4
S11315C01B48EAE71B48A4F12001E6E71F2901DCD8
S11315D01948E2E71948A4F12001DEE71F2901DCDC
S11315E01748DAE71748A4F12001D6E71F2901DCE0
S11315F01548D2E71548A4F12001CEE71F2901DCE4
S11316001348CAE71348A4F12001C6E71F2901DCE7
S11316101148C2E71148A4F12001BEE79820000058
S113162040A0084050A0084044A0084054A00840EE
S113163048A0084058A008404CA008405CA00840BE
S1131640CCA00840B4A00840D0A00840B8A00840EE
S1131650D4A00840BCA00840D8A00840C0A00840BE
S113166008B507280BDD40F20331294800F0C3F91F
S1131670BDE8084040F24331254800F0BCB90728D2
S1131680F6D8DFE800F0040B12192029323B214B75
S1131690186C42400A4042401A6408BD1D4B586C05
S11316A042400A4042405A64F7E71A4B986C424061
S11316B00A4042409A64F0E7164BD86C42400A4014
S11316C04240DA64E9E7134BD3F8CC0042400A40C5
S11316D04240C3F8CC20E0E70E4BD3F8D0004240A0
S11316E00A404240C3F8D020D7E70A4BD3F8D400CD
S11316F042400A404240C3F8D420CEE7054BD3F819
S1131700D80042400A404240C3F8D820C5E700BF91
S11317109820000000A00840072804DD4FF457710A
S1131720254800F068B9072844D8DFE800F0040B26
S113173012192029323B214B186D42400A40424085
S11317401A6570471D4B586D42400A4042405A6525
S113175070471A4B986D42400A4042409A65704760
S1131760164BD86D42400A404240DA657047134B2D
S1131770D3F8B40042400A404240C3F8B420704752
S11317800E4BD3F8B80042400A404240C3F8B82098
S113179070470A4BD3F8BC0042400A404240C3F8A9
S11317A0BC207047054BD3F8C00042400A40424079
S11317B0C3F8C020704700BF9820000000A0084074
S11317C0034A536823F4E01303435360704700BF94
S11317D000A0084010B5044618B957210F4800F07E
S11317E00AF90F4AD2F8E430D2F8E0109B0003F073
S11317F03C03C1F381110B43A370D2F8E03003F032
S11318003F036370D2F8E830D2F8EC2003F0F00321
S1131810C2F303121343237010BD00BFE320000082
S113182000FF0FE0024BD3F8FC00000E704700BF2E
S11318300081E00F024BD3F8FC00C0F3074070476F
S11318400081E00F07B5064B18681B7900906846C5
S11318508DF80430FFF714FD002003B05DF804FB9D
S11318603121000007B5084B186801900748FEF7BE
S1131870ABFF01A8FFF72CFB3220FFF7A7FB0020EA
S113188003B05DF804FB00BF36210000006CDC02ED
S113189010B56FF00403A0210A480B4C13F0800F1D
S11318A003F1010207D12344272A83F800131346C6
S11318B0F4D1002010BD03F00F03043B0344197658
S11318C01346EBE700ED00E000E100E008B5064B4D
S11318D0044613B10021AFF30080044B1B6803B12D
S11318E09847204600F088F80000000010130020FC
S11318F070B500260C4D0D4C641BA410A64209D1F2
S113190000F03EF900260A4D0A4C641BA410A642BE
S113191005D170BD55F8043B98470136EEE755F8FC
S1131920043B98470136F2E7EC100020EC1000204D
S1131930EC100020F010002008B50020FEF722FD76
S1131940BDE80840FEF7AABC08B5FEF787FCFEF721
S113195095FC0620FEF746FC08B9FEF765FC072057
S1131960FEF740FC18B9BDE80840FEF743BC08BDCB
S113197008B500F0D9F8FFF7DFFF00F0E2F8FFF751
S1131980E3FFFAE708B5002278210120FFF7C4FE3F
S1131990002278210220FFF7BFFE002278210320D5
S11319A0FFF7BAFE002278210420FFF7B5FE0022DB
S11319B078210520FFF7B0FE002278210620FFF7EA
S11319C0ABFEBDE80840002278210720FFF7A4BE43
S11319D0704708B5FEF782FFBDE80840FEF726BE53
S11319E000F006B8704770477047704770477047FB
S11319F00F207047FEE7FEE7FEE7436803B1184790
S1131A0022207047704738B50D680C462B78022B9E
S1131A100CD069792879FEF7EDFEB0FA80F0400920
S1131A2028702046BDE83840FFF7ECBF38BD036896
S1131A301878704710B504682378022B15D06179A3
S1131A402079FEF7D7FEA279012A15D1003818BFF4
S1131A5001204FF6E071638840EA430363F03F03DB
S1131A609BB28B4202D12270638010BD4FF6DF72AD
S1131A709342F9D10022F6E7002AF6D1B0FA80F0B9
S1131A8040092070F1E703681A78022A03D1002282
S1131A905A80FEF7CFBE704713B504682378022B33
S1131AA010D0A379022B0BD100216079FEF72EFF11
S1131AB00023627920791146CDE90033FFF734FC25
S1131AC00223237002B010BDEFF3108072B670478A
S1131AD000B962B67047EFF31180602383F3118875
S1131AE0704780F31188704770B5054614460E465A
S1131AF0FFF7EAFF2B685C4034405C402C60BDE893
S1131B007040FFF7E5BF13B54FF44073002401A8FC
S1131B10ADF804308DF80640FFF71AFA3220FFF7CB
S1131B204FFA204602B010BD08B5FEF74BFDFFF793
S1131B3050FFFFF755FFFFF755FFBDE80840FFF7DB
S1131B4052BF08B5FFF750FFFFF74FFFFFF74EFFF7
S1131B50BDE80840FFF74BBF0028B8BF40427047BC
S1131B6003460244934200D1704703F8011BF9E78E
S1131B700000000000000000000000000000000061
S1131B80F8B500BFF8BC08BC9E467047F8B500BF66
S1131B90F8BC08BC9E46704700000000000000002E
S1131BA00000000000000000000000000000000031
S1131BB00000000000000000000000000000000021
S1131BC00C20270C1C0C0C1E2722230C0C0C1D01B2
S1131BD000030200030400050000070506070000D7
S1131BE001000000030040000C00000000000000A1
S1131BF0000000003F0006005B004F0066006D001F
S1131C007D0007007F006F0077007C0039005E00D4
S1131C107900710040000101050707030402030273
S1131C20040605060D0E0E0E0D0D0D0D0E0E0E0EF8
S1131C300D0D01010507070304020302040605064E
S1131C400F1010100F0F0F0F101010100F0F0101B5
S1131C500507070304020302040605061112121203
S1131C6011111111121212121111010105070703AA
S1131C700402030204060506131C1C1C131313138D
S1131C801C1C1C1C1313000105070602030103029C
S1131C90040604051D1E1E1E1D1D1D1D1E1E1E1ECA
S1131CA01D1D0001050706020301030204060405C5
S1131CB01F2020201F1F1F1F202020201F1F010165
S1131CC00507070304020302040605062122222253
S1131CD0212121212222222221210705020103069A
S1131CE004232323232323230705020103060424B7
S1131CF0242424242424070502010306042525257D
S1131D002525252507050201030604262626262661
S1131D1026260001070206272727272700000000A0
S1131D2000000000131211100F0E0D0C0000000033
S1131D302125242601010304040203020D0E0D0DC6
S1131D400E0D0E0E01010304040203020F100F0F07
S1131D50100F1010010103040402030211121111E7
S1131D60121112120101030404020302131C1313BF
S1131D701C131C1C00010203040103021D1E1D1D73
S1131D801E1D1E1E00010203040103021F201F1F4B
S1131D90201F202001010304040203022122212127
S1131DA02221222205070704040605060E0E0D0D46
S1131DB00E0E0D0D050707040406050610100F0F7F
S1131DC010100F0F0507070404060506121211115F
S1131DD01212111105070704040605061C1C13132F
S1131DE01C1C131305070603040604051E1E1D1DF3
S1131DF01E1E1D1D050706030406040520201F1FC3
S1131E0020201F1F0507070404060506222221219E
S1131E10222221211010002035080000351A00006C
S1131E20871A0000991A00002F1A000018100020C9
S1131E3035080000351A0000871A0000991A0000BE
S1131E402F1A0000633A5C75736572735C6B697377
S1131E5063685C73696D706C6963697479737475B4
S1131E6064696F5C73646B735C6765636B6F5F73EA
S1131E70646B5C706C6174666F726D5C656D6C69CB
S1131E80625C696E635C656D5F6770696F2E680084
S1131E90433A2F55736572732F6B697363682F53BD
S1131EA0696D706C696369747953747564696F2FB3
S1131EB053444B732F6765636B6F5F73646B2F7051
S1131EC06C6174666F726D2F6472697665722F62CD
S1131ED07574746F6E2F7372632F736C5F73696D97
S1131EE0706C655F627574746F6E2E630000FFFF23
S1131EF0FFFFFFFFFFFFFFFFFF1F633A5C75736582
S1131F0072735C6B697363685C73696D706C69632D
S1131F1069747973747564696F5C73646B735C67FB
S1131F2065636B6F5F73646B5C706C6174666F7216
S1131F306D5C656D6C69625C696E635C656D5F6345
S1131F406D752E6800433A2F55736572732F6B6954
S1131F507363682F53696D706C6963697479537422
S1131F607564696F2F53444B732F6765636B6F5FA1
S1131F7073646B2F706C6174666F726D2F656D6C1A
S1131F8069622F7372632F656D5F636D752E6300D5
S1131F90000280000800020020000001400004004C
S1131FA0010010000907030105433A2F55736572B8
S1131FB0732F6B697363682F53696D706C69636900
S1131FC0747953747564696F2F53444B732F676529
S1131FD0636B6F5F73646B2F706C6174666F726D8B
S1131FE02F656D6C69622F7372632F656D5F636F0C
S1131FF072652E6300433A2F55736572732F6B69B4
S11320007363682F53696D706C6963697479537471
S11320107564696F2F53444B732F6765636B6F5FF0
S113202073646B2F706C6174666F726D2F656D6C69
S113203069622F7372632F656D5F6770696F2E63BA
S113204000633A5C75736572735C6B697363685C97
S113205073696D706C696369747973747564696F9D
S11320605C73646B735C6765636B6F5F73646B5CF9
S1132070706C6174666F726D5C656D6C69625C69CD
S11320806E635C656D5F6275732E6800FFFFFFFF12
S1132090FFFFFFFFFFFFFF1F433A2F557365727366
S11320A02F6B697363682F53696D706C696369740E
S11320B07953747564696F2F53444B732F67656349
S11320C06B6F5F73646B2F706C6174666F726D2FCE
S11320D0656D6C69622F7372632F656D5F6C6364E9
S11320E02E6300433A2F55736572732F6B697363C4
S11320F0682F53696D706C6963697479537475647E
S1132100696F2F53444B732F6765636B6F5F736401
S11321106B2F706C6174666F726D2F656D6C696284
S11321202F7372632F656D5F73797374656D2E639E
S10F213000000000010103030000000097
S10B213C2CE0FF7F010000000C
S10F214450210000001000203D000000AD
S113215003000000809FD50000800000006CDC02BA
S113216000000000010A0200000000000109020052
S1132170FFFFFFFF01010105070703040203020437
S11321800605060D0E0E0E0D0D0D0D0E0E0E0E0D8A
S11321900D01010507070304020302040605060FE7
S11321A01010100F0F0F0F101010100F0F0101055A
S11321B00707030402030204060506111212121192
S11321C01111111212121211110101050707030452
S11321D002030204060506131C1C1C131313131C10
S11321E01C1C1C131300010507060203010302044F
S11321F00604051D1E1E1E1D1D1D1D1E1E1E1E1D4C
S11322001D00010507060203010302040604051F5D
S11322102020201F1F1F1F202020201F1F01010519
S113222007070304020302040605062122222221D1
S11322302121212222222221210000004501000027
S10722401D01000078
S903066D89
