S0150000436174636854686542616E616E612E7333379A
S1130000001000204D0A0000DD280000DD2800005B
S1130010DD280000DD280000DD280000DD280000C8
S1130020DD280000DD280000DD280000DD280000B8
S1130030DD280000DD280000DD280000DD280000A8
S1130040DD280000650D0000DD280000DD2800002B
S1130050DD280000DD280000DD280000DD28000088
S1130060DD280000DD280000DD280000890D0000E7
S1130070DD280000DD280000DD280000DD28000068
S1130080DD280000DD280000DD280000DD28000058
S1130090DD280000DD280000DD280000DD28000048
S11300A0DD280000DD280000DD280000DD28000038
S11300B0DD280000DD280000DD280000DD28000028
S11300C0DD280000DD280000DD280000DD28000018
S11300D0DD280000DD280000DD2800000348044B73
S11300E0834202D0034B03B11847704774110020B8
S11300F074110020000000000548064B1B1AD90F9C
S113010001EBA301491002D0034B03B11847704718
S113011074110020741100200000000010B5064C7A
S1130120237843B9FFF7DAFF044B13B10448AFF364
S113013000800123237010BD16150020000000006C
S1130140F836000008B5054B1BB105490548AFF367
S11301500080BDE80840FFF7CFBF00BF00000000EB
S113016074110020F8360000A3F5803A704700BFF0
S1130170174B002B08BF134B9D46FFF7F5FF0021DB
S11301808B460F461348144A121A02F0D2FC0E4B47
S1130190002B00D098470D4B002B00D0984700202F
S11301A0002104000D000D48002802D00C48AFF3D4
S11301B0008001F021FF2000290002F04DFB01F036
S11301C085FD00BF000008000000000000000000E2
S11301D000100020741100201C15002000000000F5
S11301E00000000008B5002000F070FA002001F0C3
S11301F08FFE01F07DFD00F00FF9054B0121186819
S113020000F06EFB00F000F9BDE8084000F040B9D2
S11302109411002008B5114B0121186800F060FB0F
S113022000F072F900F05AF801F090FD0C4B0D4A01
S11302301B6812681344182B03DDBDE8084000F066
S11302405DB8094B1968072390FBF3F3C3EBC303B1
S1130250C01ABDE8084000F057B800BF9411002050
S1130260A01100209C110020201000200B4B0C4AF0
S1130270196812F811006FF3C30002F8110019682D
S11302800529DEBF196801311960196812F81130A7
S113029043F0080302F81130704700BF201000201B
S11302A0081500200B4B0C4A196812F811006FF363
S11302B0C30002F8110019680029C2BF196801F1CE
S11302C0FF311960196812F8113043F0080302F87D
S11302D011307047201000200815002008B5054B88
S11302E00820197800F0AAFA034B1868BDE8084002
S11302F000F042BAA410002098110020014800F038
S1130300B1BA00BFE02F000070B52A4B2A4D1A681D
S11303102A4B53F822402A4B1A6894422BD10022CC
S11303201A6055F820306BB30124264A0023104686
S113033055F823600133072B22F8026BF8D110F82B
S1130340113043F0080300F811301E4800F0D6FACB
S113035084B1002455F824304BB155F82430B3F55A
S1130360807F21D012DC012B19D0082B1FD001343F
S1130370072CEFD170BD1A68002401321A6055F8B9
S11303802030D2E7012345F82030CDE7B3F5805F74
S1130390EDD1204600F0CAF848B9082301E04FF433
S11303A0807345F82430E2E74FF48053F9E70023E3
S11303B0F7E700BF94110020A411002000100020D2
S11303C0901100200815002038B50B4D2B68072B21
S11303D00ED100242C6020460021013400F080FA64
S11303E0082CF8D128680121BDE8384000F078BA1B
S11303F02B6801332B60F5E7941100200122014B97
S11304001A6070478C110020024A1368002BFCD03C
S1130410704700BF8C11002013B50121184800F06B
S1130420A7FE012302221846092101F0E1F9012364
S1130430022218460A2101F0DBF900F04FFC1149B1
S1130440092000F063FC10490A2000F05FFC01243D
S11304500922204611460023CDE9004401F064F945
S11304600A22002311462046CDE9004401F05CF93C
S11304700222064B1A604FF400621A6002B010BDEB
S113048000D20400C9030000FD03000000E100E005
S113049013B50121184800F06BFE0123022218460F
S11304A0092101F0A5F90123022218460A2101F0CD
S11304B09FF900F013FC1149092000F027FC1049B2
S11304C00A2000F023FC01240922204611460023BF
S11304D0CDE9004401F028F90A2200231146204600
S11304E0CDE9004401F020F90222064B1A604FF4D2
S11304F000621A6002B010BD00D20400A502000020
S11305006D02000000E100E06421054B1A68054B10
S11305101B6801FB0233044A13601068FFF7DEBE58
S1130520A01100209C1100209811002008B50B4A4E
S11305301368834207D00A4A136801331360FFF734
S1130540E3FF002008BD12689A42FBD1054A1368F4
S113055001331360FFF7D8FF0120F3E720100020D8
S1130560A01100209C110020024A536E0342FCD1CA
S1130570704700BF00A0084010B50022284C104668
S1130580214601F06DFA21460022012001F068FAAB
S113059021460022022001F063FA214600220320B2
S11305A001F05EFA21460022042001F059FA2146A6
S11305B00022052001F054FA21460022062001F011
S11305C04FFA21460022072001F04AFA0022FF21B7
S11305D0104601F0A1FA0022FF21012001F09CFA4B
S11305E00022FF21022001F097FA0022FF210320BC
S11305F001F092FA0022FF21042001F08DFA00227A
S1130600FF21052001F088FA0022FF21062001F0D5
S113061083FABDE810400022FF21072001F07CBAD4
S113062000F00FF010B5274C00220720264901F0F6
S113063017FA21460022062001F012FA2146002270
S1130640052001F00DFA21460022042001F008FAE9
S113065021460022032001F003FA21460022022051
S113066001F0FEF921460022012001F0F9F90022EF
S11306704FF02041104601F0F3F90721002208460B
S113068001F04AFA00220721062001F045FA00226F
S11306900721052001F040FA00220721042001F07F
S11306A03BFA00220721032001F036FA0022072139
S11306B0022001F031FABDE8104000220721012098
S11306C001F02ABA00E00FF000E00F5010B501214C
S11306D00446224800F04CFD0321214800F0D6FED8
S11306E04021204800F028FC012000F017FE0121E1
S11306F01D4800F03DFD1D4B1D489A6A00229A6278
S113070001F0D4F80121082001F006F9012110209C
S113071001F002F90121802001F0FEF801214FF4DB
S1130720807001F0F9F801214FF4007001F0F4F841
S113073064B14FF4402001F043FA4FF4803001F0EB
S1130740DDF80C4AD36F43F00803D367FFF714FFB7
S1130750BDE810404FF0FF30FFF706BFD0433E0026
S113076002001E0080002A0000362C0000A0084071
S11307700430000000800C402DE9F84F42F20E7363
S1130780984204464BDC294B984204DB002803DBE7
S11307904FF0000A06E01C46204602F065F94FF0CF
S11307A0010A044601254FF0FF30FFF7DDFE204B20
S11307B000271D6602F05AF84FF00A09BAF1000F3B
S11307C001D0032F30D094FBF5F393FBF9F209FB2E
S11307D012339BB20E264FF00008164A32F813B0BB
S11307E0154B06FB07364BFA08F2D30706D5012250
S11307F096F8CB1096F8C40001F09AF808F10108B5
S1130800B8F1070F06F10106EDD10137042F09FBFA
S113081005F5D3D10022064B1A66BDE8F88F4FF0D8
S1130820000A42F20F74BDE71023D3E719FCFFFF5F
S113083000A0084018300000F23000000E280A46DC
S113084003468BBF00210549084608569CBF04494E
S1130850C95602B1012201F06BB800BFF52F0000A8
S1130860E62F00002DE9F84F814602F06DF980462D
S11308704FF0FF30FFF778FE0122164B00241A6672
S1130880FFF7D0FE144FDFF854A0A045D8BF2023B3
S11308903E464FF00005C8BF19F80430203B3AF833
S11308A013B04BFA05F3DB0704D50122B17B307892
S11308B001F03EF801350E2D06F10106F1D10134A7
S11308C0072C07F11C07E0D10022024B1A66BDE891
S11308D0F88F00BF00A00840F23000003A3000005A
S11308E00A46054B034493F8060193F80E1102B12E
S11308F0012201F01DB800BFF23000002DE9F041E3
S11309000746124B5C6E002CFCD10122DFF84080BC
S11309101A6646460025334637F8142030782A41B3
S113092012F0010218BF0122997B013501F000F891
S11309300E2D06F10106EED10134072C08F11C0836
S1130940E7D10022014B1A66BDE8F08100A00840FF
S1130950A510002010B500F06BFD01210F4800F038
S113096007FC01220020114600F036FD01220C4C48
S11309701146A36A002023F4803323F0030343F0D9
S11309800203A36200F028FDA36A002023F480136D
S113099023F00C0343F00803A36210BDD0433E00D0
S11309A000800C4013B50122164B1A6401F03AF989
S11309B0044601A801F00EF90F2C12D99DF8043059
S11309C0022B0ED99DF80520022A01D1042B08D050
S11309D00D4AD2F8C03023F0500343F01003C2F89C
S11309E0C03001F055F900F02BF802F014F801F0D2
S11309F039F9FFF7AFFF01F025F902B0BDE8104067
S1130A0000F012B800000C4000800C4008B5044807
S1130A1001F07BFFBDE80840024801F076BF00BF4B
S1130A2008330000F032000008B50121034800F04B
S1130A309FFBBDE8084001F03FBF00BF00D20400A7
S1130A400121014800F094BB00D2040008B500F075
S1130A50B9F8124B12498B4212D30020114B1249A0
S1130A608B4218D3FFF784FB186850F8224058686B
S1130A7040F82240013298688242F5D30C33EAE709
S1130A800022F8E71C6844F8220001325C68A242A4
S1130A90F8D30833E4E70022F8E700BF003700008A
S1130AA00C3700000C3700000C370000004870477A
S1130AB0006CDC02254AD36A03F47053B3F5805FFB
S1130AC03AD0B3F5005F04D0B3F5006F0BD1204BDF
S1130AD000E0204B1B681D4A1068C0F382300130CF
S1130AE0B3FBF0F07047D36803F4E063B3F5407FE1
S1130AF025D008D8B3F5807F0ED0B3F5007F20D081
S1130B00A3B10023E7E7B3F5806F1CD0B3F5A06F62
S1130B10114B18BF0023DEE7104B114AD3F8FC1029
S1130B20104BB1F1985F28BF1346D4E70B4B0E4A24
S1130B30D3F8FC100D4BF4E74FF40043CBE70C4B18
S1130B40C9E70C4BC7E70C4BC5E700BF00800C405E
S1130B502C10002028100020003FAB010081E00F82
S1130B6040B56400C0CF6A00804F120040420F00BD
S1130B70809FD500C0D8A700406F400108B5FFF79B
S1130B8099FF044B5B6803F00F03D840024B1860D5
S1130B9008BD00BF00800C4024100020014B1868E1
S1130BA0704700BF2C100020044B1860044BDB6A14
S1130BB01B0501D5FFF7E2BF704700BF2C100020D2
S1130BC000800C40014A024B9A607047000000000C
S1130BD000ED00E00346054A0549106803448B42D2
S1130BE08CBF4FF0FF301360704700BF30100020FF
S1130BF00000022038B5052805460C4605D80A4BE6
S1130C0033F81030CB40DB0704D440F2CF3107482F
S1130C1001F065FE24235D43054B2B4404EBC30420
S1130C20A400206838BD00BFCA3300002033000090
S1130C301C60100237B5046801210546164800F00F
S1130C4097FA002301226179207900F0D1FD6179BE
S1130C502079FFF7CFFFB0FA80F35B092370A37903
S1130C60022B15D100F03AF82A460C49607900F0BD
S1130C705FF8FF28054603D18421094801F02FFEBF
S1130C800123617920792A46CDE9003300F04CFD37
S1130C90002003B030BD00BF00D2040017290000BB
S1130CA06C33000070B5012504460B4E04B970BDC9
S1130CB094FAA4F0B0FA80F005FA00F306EB0012FF
S1130CC024EA03045368002BF0D0117B11B191681E
S1130CD09847EBE79847E9E7C011002008B50B20D7
S1130CE000F0B4FC28B14FF40062074BC3F8802134
S1130CF01A60012000F0AAFC20B10222024BC3F8C2
S1130D0080211A6008BD00BF00E100E038B5054647
S1130D100C4601F068FE0022044B03EB05135C60F3
S1130D201A73BDE8384001F064BE00BFC011002052
S1130D3070B5044615460E4601F055FE084B03EB0C
S1130D4004135A684AB9FF2C03D00122C3E9016590
S1130D501A7301F04EFE204670BDFF24F9E700BF70
S1130D60C0110020074BD3F81001D3F81421104010
S1130D7020F42A5020F02A004004400CC3F81C013F
S1130D80FFF790BF00600040074BD3F81001D3F881
S1130D901421104020F4AA4020F055000004000C57
S1130DA0C3F81C01FFF77EBF0060004010B5431E6E
S1130DB0B3F5004F044604D2B4FA84F0C0F11F0026
S1130DC010BD40F69351034801F089FD002CF3D186
S1130DD02020F3E7D6330000034B5A6DD20702D428
S1130DE01A6D1042FCD1704700800C4008B500F029
S1130DF021FF4A2805D0792803D0482818D1104863
S1130E0015E010490E48D1F8E030D1F8E820D1F8C7
S1130E10EC101B0203F47C53C1F3031102F0F00243
S1130E200B431343084AB3F5017F28BF104608BD9E
S1130E30064841F2186101F052FD0020F7E700BFB7
S1130E400048E80100FF0FE000366E012134000085
S1130E5010B50446FFF7CAFFA04207D2FFF7C6FF4A
S1130E60B4EB400F0ED80122012301E00022134607
S1130E7005498B6705494B6823F4807343EA0223D1
S1130E804B6010BD0222EFE70000904300800C404D
S1130E90144B5A686FF0130302F00702134113F066
S1130EA0010F114B09D1984217D8104B104A034433
S1130EB093422CBF0023012308E098420FD80B4B28
S1130EC00B4A0344934234BF0323022305494A686F
S1130ED022F0070213434B6070470423F6E705230F
S1130EE0F4E700BF00000C400048E801FFDB0BFF03
S1130EF00024F40038B541F67133064CE56BE36326
S1130F00FFF7D4FDADB2FFF7C3FF0DB10023E363D8
S1130F1038BD00BF00000C4038B541F67133054CB4
S1130F20E56BE363ADB2FFF7B3FF0DB10023E363F9
S1130F3038BD00BF00000C4010B5C0F30313013BE3
S1130F400C460C2B00F20581DFE813F00D000301C1
S1130F50030125000301030144006700D1000301DC
S1130F600301030138004C1E072C04D941F67C41CF
S1130F70794801F0B4FCFFF7BDFF784A136823F405
S1130F80E03343EA84341460FFF7F8FDBDE8104011
S1130F900021FFF7C1BF4B1EB3F5007F04D341F618
S1130FA08F416D4801F09BFC2046FFF7FFFE6B4A22
S1130FB0936823F00F030343936010BD0846FFF7C3
S1130FC0F5FE664A0138536823F4807343EA00232C
S1130FD05360F2E74B1EB3F5007F04D341F6A541FD
S1130FE05D4801F07CFCFFF785FFFFF7C7FDB0FB10
S1130FF0F4F0FFF72DFF2046FFF7D8FE574A536859
S113100023F00F0303435360FFF7B8FD0021FFF7FC
S113101083FFBDE81040FFF71BBF514B98424FD0F0
S11310200DD8504B984220D003F58223984232D0F9
S113103041F6FE41BDE81040474801F050BC4A4B20
S11310409842F5D1082904D941F6F041424801F00B
S113105046FC0420FFF7C0FE2046FFF7A7FE3F4AE8
S1131060936E23F00303034313E0B1F5004F04D957
S113107041F6C341384801F032FC0420FFF7ACFECE
S11310802046FFF793FE354A936E23F0F00343EABC
S11310900013936691E7B1F5004F04D941F6D141AD
S11310A02D4801F01CFC0420FFF796FE2046FFF7B4
S11310B07DFE2A4A936E23F4706343EA0023E8E733
S11310C0A1F11003702B04D94FF4E751224801F029
S11310D006FC0420FFF780FE2046FFF767FE1F4A48
S11310E00438936E23F4405343EA0033D1E71F4B93
S11310F0984206D003F50433984216D041F62451A1
S113110098E7082904D941F60751134801F0E7FB91
S11311104020FFF761FE2046FFF748FE0F4A136F99
S113112023F003030343136747E7082904D941F66F
S11311301651094801F0D3FB4020FFF74DFE20462D
S1131140FFF734FE054A136F23F0300343EA00131C
S1131150E9E741F62A516DE72134000000800C4094
S113116080002A008016120080062E0090071A00C4
S113117070B5C0F30323013B04460E46092B16D871
S1131180DFE803F0302C051515272015151CFFF793
S1131190F5FCFFF75DFE154DC4F3043405F142453B
S11311A005F5801504EBC504A400266070BD41F666
S11311B0B051BDE870400E4801F091BB0D4DC0F335
S11311C00434EBE7C0F3043410200B4DFFF704FEA6
S11311D0E4E7C0F30434094D0120F7E7084DC0F3F8
S11311E00434DBE7074DC0F30434D7E740800C40F8
S11311F02134000078800C4060800C4058800C4002
S113120044800C4008800C4008B500F00F00013801
S113121006284CD8DFE800F00414254B4B333B0080
S1131220294BDB6A03F47053B3F5805F4AD0B3F5FE
S1131230005F45D0B3F5006F0CBF0420052008BD46
S1131240214B986A00F003000228F8D0032835D017
S1131250012837D09B6A13F4803F0CBF01200A2079
S1131260EDE7194A936A03F00C03082B28D00C2BE2
S113127024D0042B26D0936A13F4801FEDE7124B7D
S11312801B6813F0805F0CBF07200920D7E70E4BC3
S1131290DB6A03F46033B3F5803F11D0B3F5003F4C
S11312A010D0B3F5004F0CBF09200120C7E7074851
S11312B042F2013101F013FB0020C0E70620BEE733
S11312C00220BCE70320BAE700800C402134000070
S11312D010B504461120FFF797FF042804D142F605
S11312E073210C4801F0FBFA08230B4A13621368BC
S11312F0E17823F4D16323F007030B43617843EAD5
S11313004123217843EA8103A17843EAC11313609E
S113131010BD00BF2134000000800C4010B58028AF
S1131320044604D942F60D31074801F0D8FA074AB9
S1131330936D1B0706D4D36F04F0070423F007034F
S11313402343D36710BD00BF2134000000800C404C
S113135070B505461120FFF757FF022804D142F665
S11313602B31144801F0BBFA4FF40073124E336270
S1131370AC786B78E40244EA83442B78C3F34003EB
S113138044EA433401F028FB33685C4024F07F4492
S113139024F4730424F4474424F0FF045C403460D0
S11313A001F01EFB2B78054A03F00103C2F8A034B8
S11313B070BD00BF2134000000800C4000008C434D
S11313C0014B1880704700BFA2100020014B188009
S11313D0704700BFA010002030B404280BD80E4B77
S11313E01C5C0E4B33F810500D4B33F810000D4BB2
S11313F039B918620DE042F6F93130BC0A4801F0FF
S11314006EBA1D622AB1094B23449B001A68002A54
S1131410FCD030BC704700BF80340000763400003C
S11314206C34000000800C40213400006001E410A2
S113143008B5FFF7DBFC0130FFF70AFDFFF7AEFB51
S1131440104A114B984213684FF0020096BF23F0E4
S1131450600343F0600343F020031360012211464C
S1131460FFF7BAFFFFF746FD0222064B5A62FFF769
S113147085FBFFF7EDFCFFF781FBBDE80840002189
S1131480FFF74ABD00800C400048E80110B500F0A9
S11314900F04631E062B00F2CD80DFE803F0044E38
S11314A04ECBCB91A300023908293DD8DFE801F0E7
S11314B03F42052E3C3C3C3C3500FFF797FC013095
S11314C0FFF7C6FCFFF76AFB5C4B5D4A9842136862
S11314D017D943F060030220044613600122114629
S11314E0FFF77AFFFFF706FD554B5C62FFF746FBFB
S11314F00446FFF7ADFC2046BDE810400021FFF78D
S11315000BBD23F0600343F02003E4E7FFF76EFC18
S11315100130FFF79DFC0320E0E742F22F51BDE8C4
S11315201040484801F0DBB942F23451F7E700209B
S11315300424D3E701200324D0E7013909292DD855
S1131540DFE801F02F05192C2C212C2C2C32012240
S113155000201146FFF740FF002302213848022CE7
S1131560826A23D122F4803222F003020A4342EA3F
S11315700342826210BD012211461046FFF72CFF80
S113158000230121EAE7FFF7F9FAFFF761FC0122E2
S11315902D4B0321C3F810280023DFE742F2DD516D
S11315A0BDE700230021D9E70123FBE71B0522F453
S11315B0801243EA810322F00C0213438362D9E7C9
S11315C0072904D0092908D042F23861A7E71C4A48
S11315D0136823F080531360CCE7194A136843F06F
S11315E08053F8E703290FD0092919D002291ED105
S11315F0012200201146FFF7EFFE4022104B5A62F1
S1131600DA6AD003FCD5B5E7012211461046FFF78C
S1131610E3FE60220A4B5A62DA6A9103FCD5A9E719
S11316202022074B5A62DA6A1204FCD5A2E742F27E
S1131630776174E742F26D7171E700BF0048E80119
S113164000800C40213400000000904310B5C3B268
S1131650262B044604D94FF44D71074801F03FF995
S1131660064B620953F8220004F01F04E040C04313
S113167000F0010010BD00BF8534000000E100E06F
S113168010B504798378094923430478CA6A43EA84
S11316900443C478407822F4803243EA440322F0BD
S11316A01F0243EA00131343CB6210BD00600C40D9
S11316B038B5052804460D4605D80A4B33F81030D2
S11316C0CB40DB0704D440F22D41074801F007F971
S11316D024220123544304F18044AB4004F5C04464
S11316E0236138BD683500002033000038B5052873
S11316F004460D4605D80A4B33F81030CB40DB07BF
S113170004D440F2FE31074801F0E9F82422012311
S1131710544304F18044AB4004F5C044636138BDD4
S113172068350000203300002DE9F84305280646FB
S1131730154698469DF8209006D8254B33F810306E
S113174023FA01F1CB0703D4BF21224801F0C7F8E3
S11317500127214C072D2C444FF0070107FA05F708
S11317604FEA84040FD81D4B1D48234406FA03F2A4
S1131770994001F041F91B4B44F8808CC4F8009067
S1131780C3F81C711DE0A5F108039B00164806FA76
S113179003F2994001F030F91F2DECD9912113483F
S11317A001F09DF89121114844F8808C01F097F8DC
S11317B00C4BC4F8009091210C48C3F81C7101F043
S11317C08EF89DF82430C4F88030BDE8F88300BF5B
S11317D068350000D13400006008831080DEF3BD5A
S11317E00061004000600040046100401D350000BD
S11317F0F8B5052805460C4616461F4605D81C4B69
S113180033F81030CB40DB0704D44FF4B0711948DF
S113181001F065F826B121462846C7B1FFF748FF15
S11318202423072C4FF00F0105FB03F312D8A0006B
S113183006FA00F281401048184401F0DDF8AEB910
S11318402146284677B1BDE8F840FFF731BFFFF7DE
S11318504DFFE5E7A4F10800800006FA00F281409C
S11318600648E9E7BDE8F840FFF740BFF8BD00BF10
S113187068350000D1340000046000400860004076
S113188070B51F2905460C46164603D99121064812
S113189001F025F805F1424000F5801004EBC00486
S11318A0A400266070BD00BF1D35000070B5114D49
S11318B004466E6818B946210F4801F010F82B68E9
S11318C0E26823F001032B606368134326F4830268
S11318D022F01F021343227A1343627A1A43238AA3
S11318E013436B6023781BB12B6843F001032B6017
S11318F070BD00BF00A0084074350000054AB0F573
S1131900803F536823F4803308BF43F4803353602B
S1131910704700BF00A00840044B9A6811B102430D
S11319209A60704722EA0002FAE700BF00A008406C
S113193037B5072805460C4613DD40F22721374802
S113194000F0CDFF272C04DD40F22E21334800F0B7
S1131950C6FF4FF42671314803B0BDE8304000F0B3
S1131960BEBF27290EDD40F22E212C48019200F043
S1131970B6FF019A072DECD8DFE805F0141C242CDF
S1131980343C444C0728E4D8DFE800F00410182065
S1131990283038401F2905DC214803B0BDE8304019
S11319A0FFF76EBF1F48A4F12001F6E71F2901DCF1
S11319B01D48F2E71D48A4F12001EEE71F2901DCD0
S11319C01B48EAE71B48A4F12001E6E71F2901DCD4
S11319D01948E2E71948A4F12001DEE71F2901DCD8
S11319E01748DAE71748A4F12001D6E71F2901DCDC
S11319F01548D2E71548A4F12001CEE71F2901DCE0
S1131A001348CAE71348A4F12001C6E71F2901DCE3
S1131A101148C2E71148A4F12001BEE77435000063
S1131A2040A0084050A0084044A0084054A00840EA
S1131A3048A0084058A008404CA008405CA00840BA
S1131A40CCA00840B4A00840D0A00840B8A00840EA
S1131A50D4A00840BCA00840D8A00840C0A00840BA
S1131A6008B507280BDD40F20331294800F037FFA1
S1131A70BDE8084040F24331254800F030BF072854
S1131A80F6D8DFE800F0040B12192029323B214B71
S1131A90186C42400A4042401A6408BD1D4B586C01
S1131AA042400A4042405A64F7E71A4B986C42405D
S1131AB00A4042409A64F0E7164BD86C42400A4010
S1131AC04240DA64E9E7134BD3F8CC0042400A40C1
S1131AD04240C3F8CC20E0E70E4BD3F8D00042409C
S1131AE00A404240C3F8D020D7E70A4BD3F8D400C9
S1131AF042400A404240C3F8D420CEE7054BD3F815
S1131B00D80042400A404240C3F8D820C5E700BF8D
S1131B107435000000A00840072804DD4FF4577115
S1131B20254800F0DCBE072844D8DFE800F0040BA9
S1131B3012192029323B214B186D42400A40424081
S1131B401A6570471D4B586D42400A4042405A6521
S1131B5070471A4B986D42400A4042409A6570475C
S1131B60164BD86D42400A404240DA657047134B29
S1131B70D3F8B40042400A404240C3F8B42070474E
S1131B800E4BD3F8B80042400A404240C3F8B82094
S1131B9070470A4BD3F8BC0042400A404240C3F8A5
S1131BA0BC207047054BD3F8C00042400A40424075
S1131BB0C3F8C020704700BF7435000000A008407F
S1131BC0034A536823F4E01303435360704700BF90
S1131BD000A0084010B5044618B957210F4800F07A
S1131BE07EFE0F4AD2F8E430D2F8E0109B0003F0F6
S1131BF03C03C1F381110B43A370D2F8E03003F02E
S1131C003F036370D2F8E830D2F8EC2003F0F0031D
S1131C10C2F303121343237010BD00BFBF3500008D
S1131C2000FF0FE0024BD3F8FC00000E704700BF2A
S1131C300081E00F024BD3F8FC00C0F3074070476B
S1131C400081E00F07B5064B18681B7900906846C1
S1131C508DF80430FFF714FD002003B05DF804FB99
S1131C600D36000007B5084B186801900748FEF7C9
S1131C709BFF01A8FFF72CFB3220FFF7A7FB0020F6
S1131C8003B05DF804FB00BF12360000006CDC02F8
S1131C9010B56FF00403A0210A480B4C13F0800F19
S1131CA003F1010207D12344272A83F800131346C2
S1131CB0F4D1002010BD03F00F03043B0344197654
S1131CC01346EBE700ED00E000E100E008B5064B49
S1131CD0044613B10021AFF30080044B1B6803B129
S1131CE09847204600F0FFFD00000000F814002093
S1131CF038B5104B04461D682B6BB3B9182000F09F
S1131D0005FA0246286320B946210B4B0B4800F024
S1131D1097F90B490B4BC0E900130B4B002183606F
S1131D200B2383810120C2E9040100222B6B1C6177
S1131D305A6138BD40100020163600002D360000D0
S1131D400E33CDAB34126DE6ECDE0500164B10B548
S1131D501C68236BB3B9182000F0D8F9024620633D
S1131D6020B95221114B124800F06AF91149124B63
S1131D70C0E90013114B002183600B2383810120F0
S1131D80C2E90401216B0E480B694C6958430D4AA2
S1131D9002FB0400A3FB0232013340EB0200C1E961
S1131DA0043020F0004010BD401000201636000022
S1131DB02D3600000E33CDAB34126DE6ECDE05009B
S1131DC02DF451582D7F954C002310B50446C0E9DD
S1131DD00033C0E90433836081814366C281836137
S1131DE0194608225C3000F0A4FE0D4B24626362A5
S1131DF00C4BA3620C4BE3620C4B23630C4B9C42D5
S1131E0006D003F16802944202D0D0339C4205D13B
S1131E1004F15800BDE8104000F093BE10BD00BFAF
S1131E20AD2A0000CF2A0000072B00002B2B000056
S1131E30C0130020024A0349034800F019BE00BF42
S1131E4034100020592C00004410002041680C4B31
S1131E5010B59942044601D000F0FEFEA168094B7A
S1131E60994202D0204600F0F7FEE168064B994201
S1131E7004D02046BDE8104000F0EEBE10BD00BF07
S1131E80C0130020281400209014002010B50B4B20
S1131E900B4C0C4A20461A6004210022FFF794FFE1
S1131EA004F1680001220921FFF78EFF04F1D0003C
S1131EB00222BDE810401221FFF786BFF81400206B
S1131EC0C0130020351E0000014800F03BBE00BFD7
S1131ED018150020014800F036BE00BF1815002078
S1131EE010B50446FFF7F0FF236A1BB1BDE81040AC
S1131EF0FFF7F0BF044B2362044B1B68002BF5D1A2
S1131F00FFF7C4FFF2E700BF4D1E0000F8140020E5
S1131F10DFB54FF0FF364FF0FF370A4B044600227F
S1131F2069461868CDE9006700F01EF8002801DA58
S1131F30CDE90067DDE900010CB1C4E9000104B09A
S1131F40D0BD00BF4010002038B50023054D044625
S1131F5008462B6000F0C4FC431C02D12B6803B17B
S1131F60236038BDFC14002038B50023064D044618
S1131F70084611462B6000F0C6FC431C02D12B68B6
S1131F8003B1236038BD00BFFC14002038B50446FB
S1131F90084611460022054D2A601A4600F0ADFCA1
S1131FA0431C02D12B6803B1236038BDFC1400200C
S1131FB038B50446084611460022054D2A601A46E3
S1131FC000F09DFC431C02D12B6803B1236038BD93
S1131FD0FC14002038B50446084611460022054D7D
S1131FE02A601A4600F08DFC431C02D12B6803B111
S1131FF0236038BDFC14002070B500260C4D0D4C38
S1132000641BA410A64209D100F0CAFF00260A4DA1
S11320100A4C641BA410A64205D170BD55F8043BBC
S113202098470136EEE755F8043B98470136F2E746
S11320306C1100206C1100206C1100207011002024
S11320401FB514461A46094B05461B68D86854B98F
S1132050074B1C46CDE9013400912B46054900F09D
S113206003F900F021FE044BF4E700BF4010002008
S1132070C1360000933600008636000038B50546A8
S1132080002940D051F8043C0C1F002BB8BFE418C1
S113209000F0DEF81C4A136833B963601460284604
S11320A0BDE8384000F0DAB8A34208D92068211806
S11320B08B4201BF19685B6809182160EDE71A4675
S11320C05B680BB1A342FAD911685018A0420BD136
S11320D020680144501883421160E0D118685B689D
S11320E0084410605360DAE702D90C232B60D6E76A
S11320F0206821188B4201BF19685B6809182160A8
S113210063605460CBE738BD04150020024B0146E0
S1132110186800F025B800BF4010002070B50F4EBD
S11321200C463168054611B900F0B0F8306021461C
S1132130284600F0ABF8431C03D14FF0FF3420468F
S113214070BDC41C24F00304A042F8D0211A284610
S113215000F09CF80130F2D1EFE700BF0015002039
S11321602DE9F041CD1C25F0030508350C2D38BFB1
S11321700C25002D064601DBA94204D90C2333604B
S11321800020BDE8F081314F00F062F83B681C4646
S113219044BB29463046FFF7C1FF431C044650D1D7
S11321A03C682146002941D1002C44D023683046A4
S11321B004EB030800F06AF880453CD121683046FE
S11321C06D1A2946FFF7AAFF013034D023682B4447
S11321D023603B68002B36D05A68A24229D10022E2
S11321E05A600EE02268521B1DD40B2A16D96119BD
S11321F0A342256018BF5960636808BF3960625103
S11322004B60304600F02AF804F10B00231D20F047
S11322100700C21AB5D01B1AA350B2E7A3426268E2
S1132220DED13A60EDE723466468B1E70C464968BD
S1132230B8E71346CEE70C233046336000F00EF8BF
S11322409EE70560DDE75B60FFDE00BF041500204C
S1132250014800F077BC00BF17150020014800F0CA
S113226072BC00BF171500200EB403B5014603ABC2
S1132270054853F8042B0068019300F017F802B0E6
S11322805DF804EB03B070474010002038B500231C
S1132290054D044608462B60FEF79CFC431C02D106
S11322A02B6803B1236038BDFC1400202DE9F04FE6
S11322B00D461446984606469DB018B1036A0BB9FC
S11322C0FFF70EFE6B6ED90705D4AB899A0502D4CD
S11322D0A86D00F037FCAB891B0701D52B699BB9AE
S11322E02946304600F026FA70B16B6EDC0704D53F
S11322F04FF0FF301DB0BDE8F08FAB899805F7D4DF
S1132300A86D00F020FCF3E70023099320238DF847
S1132310293030234FF00109CDF80C80DFF8A88173
S11323208DF82A3023469A4613F8012B0AB1252A40
S1132330F9D1BAEB040B0BD05B4622462946304652
S113234000F0CEFC013000F0A780099A5A440992AB
S11323509AF80030002B00F09F8000234FF0FF32EA
S1132360CDE905230AF1010A049307938DF853304C
S11323701A935446052214F8011B534800F09CFD9F
S1132380049AD8B9D10644BF20238DF853301307DB
S113239044BF2B238DF853309AF800302A2B15D0E4
S11323A0544600204FF00A0C079A214611F8013BCD
S11323B0303B092B4BD9B0B1079214E0A0EB0803D2
S11323C009FA03F31343A2460493D2E7039B191DAE
S11323D01B680391002BBBBF5B4242F002020793D0
S11323E00793B8BF049223782E2B0AD163782A2B43
S11323F032D1039B02341A1D1B68039243EAE37330
S11324000593DFF8C8A003225046217800F054FD5C
S113241038B14022049BA0EB0A00824013430134EC
S1132420049314F8011B062229488DF8281000F0A3
S113243043FD00283FD0274B1BBB039B073323F0EE
S1132440070308330393099B3B4409936AE70C464B
S113245001200CFB0232A8E700234FF00A0C1946B6
S113246001340593204610F8012B303A092A03D988
S1132470002BC6D00591C4E7044601230CFB0121BF
S1132480F0E703AB00932A463046134B04A9AFF39D
S113249000800746781CD6D16B6ED90705D4AB896A
S11324A09A0502D4A86D00F04EFBAB895B063FF59C
S11324B01FAF09981EE703AB00932A463046064B2C
S11324C004A900F00BF8E4E7C2360000C8360000A7
S11324D0CC36000000000000E12C00002DE9FF478D
S11324E00F7E9146782F80460C469A460C9E01F149
S11324F0430207D8622F0AD8002F00F0DD80582F3E
S113250000F0C38004F1420684F842703AE0A7F177
S11325106303152BF6D801A151F823F075250000AB
S1132520892500000525000005250000052500007B
S1132530052500008925000005250000052500006B
S113254005250000052500009F2600001726000031
S1132550572600000525000005250000C1260000BF
S113256005250000172600000525000005250000AC
S11325705F26000033681A1D1B68326004F14206AE
S113258084F842300123A8E031682368081D3060D4
S11325901E0601D50D6803E05D06FBD5B1F90050B8
S11325A0002D616878DA2D20002984F84300A160A9
S11325B02DDA0A235D486D421646B5FBF3F103FBA1
S11325C01157C75D06F8017D2F46BB420D46F4D96D
S11325D0082B0BD12368DF0708D52369616899426A
S11325E0DEBF302306F8013C06F1FF36921B226160
S11325F04B4621464046CDF800A003AA00F082FBDA
S113260001306FD14FF0FF3004B0BDE8F08723F004
S113261004032360CDE721683368080653F8045B9C
S113262002D4490648BFADB26F2F336014BF0A23EA
S113263008233E48002184F843106668002EA660F3
S1132640BADB216821F004012160002DB4D1002EF1
S1132650B2D11646BCE7236843F0200323607827F1
S1132660334884F84570236831681F0651F8045BC9
S113267002D45F0648BFADB23160D90744BF43F00E
S1132680200323601DB11023D4E72848E9E7236819
S113269023F020032360F6E70A232448CDE73368B8
S11326A02568181D616930602E061B6801D5196004
S11326B002E06806FBD5198000231646236197E7DC
S11326C0336800211A1D32601E686268304600F0CB
S11326D0F3FB08B1801B606063682361002384F806
S11326E0433085E73246494640462369D0470130A6
S11326F088D023689B0714D4E068039B9842B8BF32
S1132700184681E70123324649464046D047013006
S11327103FF478AF0135E36803995B1AAB42F1DC0F
S1132720EAE7002504F11906F5E700BFD3360000F7
S1132730E436000038B5294B054618680C4618B134
S1132740036A0BB9FFF7CCFBB4F90C30190722D498
S1132750DA0607D409222A6043F040034FF0FF3021
S1132760A38133E0580712D5616B41B104F14403EE
S1132770994202D02846FFF781FC00236363A389B2
S113278023F02403A3810023636023692360A389C6
S113279043F00803A38123694BB9A38903F420738D
S11327A0B3F5007F03D02146284600F0B8FBB4F906
S11327B00C3013F001020AD00022A2606269524276
S11327C0A261226942B913F08000C5D138BD9907CE
S11327D058BF6269A260F4E70020F7E740100020C8
S11327E0024B0146186800F03DBB00BF40100020BA
S11327F038B50023064D0446084611462B6000F008
S113280079F8431C02D12B6803B1236038BD00BFA3
S1132810FC14002038B50023064D04460846114632
S11328202B6000F061F8431C02D12B6803B12360D4
S113283038BD00BFFC14002038B50023054D044604
S113284008462B6000F054F8431C02D12B6803B1F6
S1132850236038BDFC14002008B500F0EDF8FDF746
S1132860C1FC00F0F6F8FDF7D5FCFAE708B5002244
S113287078210120FFF750F9002278210220FFF788
S11328804BF9002278210320FFF746F90022782132
S11328900420FFF741F9002278210520FFF73CF9D5
S11328A0002278210620FFF737F9BDE8084000220E
S11328B078210720FFF730B9704708B5FEF70EFA04
S11328C0BDE80840FEF7A2B800F006B870477047AC
S11328D070477047704770470F207047FEE7FEE768
S11328E04FF0FF307047FEE700207047012070472B
S11328F0012070474FF0FF307047002070470020E0
S113290070470020704700207047436803B11847A0
S113291022207047704738B50D680C462B78022B7F
S11329200CD069792879FEF765F9B0FA80F040098E
S113293028702046BDE83840FFF7ECBF38BD036877
S11329401878704710B504682378022B15D0617984
S11329502079FEF74FF9A279012A15D1003818BF62
S113296001204FF6E071638840EA430363F03F03BC
S11329709BB28B4202D12270638010BD4FF6DF728E
S11329809342F9D10022F6E7002AF6D1B0FA80F09A
S113299040092070F1E703681A78022A03D1002263
S11329A05A80FEF747B9704713B504682378022BA1
S11329B010D0A379022B0BD100216079FEF7A6F980
S11329C00023627920791146CDE90033FEF7ACFE8D
S11329D00223237002B010BDEFF3108072B670476B
S11329E000B962B67047EFF31180602383F3118856
S11329F0704780F31188704770B5054614460E463B
S1132A00FFF7EAFF2B685C4034405C402C60BDE873
S1132A107040FFF7E5BF13B54FF44073002401A8DD
S1132A20ADF804308DF80640FEF792FC3220FEF734
S1132A30C7FC204602B010BD08B5FDF7B3FFFFF791
S1132A403CFFFFF741FFFFF741FFBDE80840FFF7F8
S1132A503EBF08B5FFF73CFFFFF73BFFFFF73AFF28
S1132A60BDE80840FFF737BF0028B8BF40427047B1
S1132A702DE9F8430746884614460026D4E9019513
S1132A80B9F1010905D52468002CF7D13046BDE819
S1132A90F883AB89012B07D9B5F90E30013303D084
S1132AA029463846C04706436835E9E710B50C4661
S1132AB0B1F90E10FFF77CFA0028ABBF636DA38950
S1132AC01B1823F48053ACBF6365A38110BD2DE9AB
S1132AD0F0411F468B890546DB050C46164605D595
S1132AE002230022B1F90E10FFF750FAA3893246EF
S1132AF023F48053A38128463B46B4F90E10BDE865
S1132B00F041FFF767BA10B50C46B1F90E10FFF7A4
S1132B103DFA431CA38915BF606523F4805343F435
S1132B208053A38118BFA38110BDB1F90E10FFF724
S1132B300BBA03460244934200D1704703F8011BC9
S1132B40F9E7704770477047034613F8012B002AD2
S1132B50FBD1181A01387047B1F90C20F8B51707E2
S1132B6005460C4656D44B68002B02DC0B6C002B3C
S1132B703DDDE66A002E3AD0002312F480522F681D
S1132B80216A2B6025D0626DA389580705D5636837
S1132B90D21A636B0BB1236CD21A216A0023284624
S1132BA0E66AB047411C24D0002363602369236094
S1132BB0A389DA0400D56065616B2F60B9B104F1B3
S1132BC04403994202D02846FFF758FA002363636E
S1132BD00DE001232846B047461C0246D4D12B6899
S1132BE0002BD1D01D2B01D0162B2AD12F60002011
S1132BF02EE02A68B4F90C3042B11D2A01D0162AFD
S1132C0021D10023636023692360D5E762602269D0
S1132C102260CEE70F69002FE9D0930718BF002385
S1132C200E6808BF4B69F61B0F608B60002EDEDD5B
S1132C3033463A462846216AD4F828C0E04700289B
S1132C4007DCB4F90C304FF0FF3043F04003A381AC
S1132C50F8BD0744361AE9E738B50B6905460C4652
S1132C6013B90025284638BD18B1036A0BB9FFF71C
S1132C7037F9B4F90C30002BF3D0626ED00704D4CA
S1132C80990502D4A06DFFF75DFF28462146FFF7A2
S1132C9063FF636E0546DA07E4D4A3899B05E1D498
S1132CA0A06DFFF750FFDDE7062008B5FFF798FD9C
S1132CB00120FFF718FE936810B4013B002B9360CA
S1132CC007DA9469A34201DB0A2902D110BC00F09F
S1132CD08BB81368581C10601970084610BC7047F4
S1132CE0F8B506460F461446D518AC4201D100206B
S1132CF007E03A46304614F8011BFFF7DCFF431C9B
S1132D00F3D1F8BD2DE9F047164698468A680B6959
S1132D1007469342B8BF1346336091F843200C46EC
S1132D20DDF820900AB1013333602368990642BF6D
S1132D30336802333360256815F0060506D104F1C3
S1132D40190AE36832689B1AAB422BDC94F84330CF
S1132D502268003B18BF0123920630D4414638460E
S1132D6004F14302C847013023D02368226903F0E9
S1132D700603042B14BF002533684FF0000608BF78
S1132D80E56804F11A0408BFED1A54F8123C08BFB0
S1132D9025EAE5759342C4BF9B1AED18B5421AD1D2
S1132DA0002008E00123524641463846C847013016
S1132DB003D14FF0FF30BDE8F0870135C1E7302083
S1132DC0E11881F843005A1C94F845102244023358
S1132DD082F84310C2E70123224641463846C847D9
S1132DE00130E6D00136D9E7F8B50E46144605465B
S1132DF018B1036A0BB9FFF773F8A369A360A38939
S1132E001A0701D5236943B921462846FFF792FCE6
S1132E1018B14FF0FF373846F8BD23682269F6B27F
S1132E20981A63693746834205DC21462846FFF732
S1132E3013FF0028EDD1A368013BA36023685A1C4B
S1132E4022601E706269431C9A4204D0A389DB0786
S1132E50E1D50A2EDFD121462846FFF7FDFE0028E2
S1132E60D9D0D6E71F2938B505460C4604D9162310
S1132E7003604FF0FF3038BDC26B12B152F82130FD
S1132E804BB9284600F016F8224601462846BDE80C
S1132E903840FFF7ADBC012B0AD0591C03D11623CF
S1132EA003600120E7E70021204642F824109847F8
S1132EB00020E0E7FFF71ABD034610B5C9B202448B
S1132EC09342184601D1002003E0047801338C4278
S1132ED0F6D110BD70B50C46B1F90E101546002997
S1132EE01E4696B00CDAA389002113F0800F14BF9C
S1132EF040234FF48063002031602B6016B070BD16
S1132F006A46FFF787FC0028EDDB019901F4704164
S1132F10A1F50053594259414FF48063EBE78B8983
S1132F20F7B59D0706460C4607D504F14703236011
S1132F3023610123636103B0F0BD6A4601ABFFF76F
S1132F40C9FF009F054639463046FFF709F948B9DD
S1132F50B4F90C309A05EED423F0030343F00203D2
S1132F60A381E2E7A389C4E9040743F08003A381B2
S1132F70019B20605BB13046B4F90E10FFF75CFC96
S1132F8028B1A38923F0030343F00103A381A38998
S1132F901D43A581CFE700000000000000000000F1
S1132FA0F8B500BFF8BC08BC9E467047F8B500BF32
S1132FB0F8BC08BC9E4670470000000000000000FA
S1132FC000000000000000000000000000000000FD
S1132FD000000000000000000000000000000000ED
S1132FE0446F6E6521000C20270C1C0C0C1E27223C
S1132FF0230C0C0C1D010003020003040005000057
S11330000705060701000000030040000C00000053
S113301000000000000000003F0006005B004F00BD
S113302066006D007D0007007F006F0077007C0064
S113303039005E0079007100400000000011800238
S11330400000000002060000200039000F0000000C
S1133050401500204004001000223F0006005B04DD
S11330604F0466046D047D0407007F046F040000B0
S11330700000000A000080200000FFFF7704790AA6
S11330803900B020790071007D04760406000E003A
S1133090700A3800B602B6083F0073043F08730C88
S11330A06D0401113E0030223628802A6E04092264
S11330B0390080080F0001000800000158107C044A
S11330C058005E04582071040C0C740404000E00B3
S11330D0700C3800541454045C04730467045004E2
S11330E0080C78001C0010201428802A0C084820A2
S11330F00000010105070703040203020406050694
S11331000D0E0E0E0D0D0D0D0E0E0E0E0D0D0101FC
S11331100507070304020302040605060F10101036
S11331200F0F0F0F101010100F0F010105070703E9
S113313004020302040605061112121211111111E0
S113314012121212111101010507070304020302EE
S113315004060506131C1C1C131313131C1C1C1C33
S11331601313000105070602030103020406040504
S11331701D1E1E1E1D1D1D1D1E1E1E1E1D1D0001AD
S11331800507060203010302040604051F2020208C
S11331901F1F1F1F202020201F1F010105070703D9
S11331A004020302040605062122222221212121F0
S11331B022222222212107050201030604232323BC
S11331C0232323230705020103060424242424249F
S11331D02424070502010306042525252525252584
S11331E007050201030604262626262626260001B4
S11331F007020627272727270000000000000000F9
S1133200131211100F0E0D0C0000000021252426AE
S113321001010304040203020D0E0D0D0E0D0E0E2A
S113322001010304040203020F100F0F100F10100A
S113323001010304040203021112111112111212EA
S11332400101030404020302131C13131C131C1CAA
S113325000010203040103021D1E1D1D1E1D1E1E6E
S113326000010203040103021F201F1F201F20204E
S1133270010103040402030221222121222122222A
S113328005070704040605060E0E0D0D0E0E0D0DA2
S1133290050707040406050610100F0F10100F0F82
S11332A00507070404060506121211111212111162
S11332B005070704040605061C1C13131C1C131322
S11332C005070603040604051E1E1D1D1E1E1D1DE6
S11332D0050706030406040520201F1F20201F1FC6
S11332E005070704040605062222212122222121A2
S11332F090100020350C000045290000972900009B
S1133300A92900003F29000098100020350C000076
S11333104529000097290000A92900003F29000041
S1133320633A5C75736572735C6B697363685C7331
S1133330696D706C696369747973747564696F5CC1
S113334073646B735C6765636B6F5F73646B5C70F2
S11333506C6174666F726D5C656D6C69625C696EDC
S1133360635C656D5F6770696F2E6800433A2F5523
S1133370736572732F6B697363682F53696D706C17
S1133380696369747953747564696F2F53444B731B
S11333902F6765636B6F5F73646B2F706C6174660A
S11333A06F726D2F6472697665722F627574746FB3
S11333B06E2F7372632F736C5F73696D706C655FCE
S11333C0627574746F6E2E630000FFFFFFFFFFFFD2
S11333D0FFFFFFFFFF1F633A5C75736572735C6BDD
S11333E0697363685C73696D706C6963697479731C
S11333F0747564696F5C73646B735C6765636B6F2E
S11334005F73646B5C706C6174666F726D5C656D28
S11334106C69625C696E635C656D5F636D752E6873
S113342000433A2F55736572732F6B697363682F6A
S113343053696D706C696369747953747564696FE9
S11334402F53444B732F6765636B6F5F73646B2FEC
S1133450706C6174666F726D2F656D6C69622F7329
S113346072632F656D5F636D752E630000028000CB
S113347008000200200000014000040001001000C8
S11334800907030105433A2F55736572732F6B695E
S11334907363682F53696D706C69636974795374CD
S11334A07564696F2F53444B732F6765636B6F5F4C
S11334B073646B2F706C6174666F726D2F656D6CC5
S11334C069622F7372632F656D5F636F72652E631C
S11334D000433A2F55736572732F6B697363682FBA
S11334E053696D706C696369747953747564696F39
S11334F02F53444B732F6765636B6F5F73646B2F3C
S1133500706C6174666F726D2F656D6C69622F7378
S113351072632F656D5F6770696F2E6300633A5C39
S113352075736572735C6B697363685C73696D70E2
S11335306C696369747973747564696F5C73646BC3
S1133540735C6765636B6F5F73646B5C706C6174F1
S1133550666F726D5C656D6C69625C696E635C65F7
S11335606D5F6275732E6800FFFFFFFFFFFFFFFFB3
S1133570FFFFFF1F433A2F55736572732F6B6973F7
S113358063682F53696D706C6963697479537475DA
S113359064696F2F53444B732F6765636B6F5F735D
S11335A0646B2F706C6174666F726D2F656D6C69DE
S11335B0622F7372632F656D5F6C63642E630043C7
S11335C03A2F55736572732F6B697363682F536950
S11335D06D706C696369747953747564696F2F5382
S11335E0444B732F6765636B6F5F73646B2F706CF1
S11335F06174666F726D2F656D6C69622F7372638F
S11336002F656D5F73797374656D2E630000000020
S11336100101030300005245454E54206D616C6C5A
S11336206F6320737563636565646564002F64610B
S113363074612F6A656E6B696E732F776F726B732B
S1133640706163652F474E552D746F6F6C636861AD
S1133650696E2F61726D2D31322F7372632F6E6517
S1133660776C69622D63796777696E2F6E65776C05
S113367069622F6C6962632F7374646C69622F7260
S1133680616E642E63002C2066756E6374696F6EC0
S11336903A2000617373657274696F6E202225731A
S11336A022206661696C65643A2066696C65202233
S11336B02573222C206C696E65202564257325737F
S11336C00A00232D302B2000686C4C00656667458A
S11336D04647003031323334353637383941424386
S11336E04445460030313233343536373839616237
S10B36F063646566000000003C
S10B36F870CAFF7F010000000D
S10F37000C370000001000205D000000E9
S113370C320000002D0000002800000023000000FF
S113371C1400000019000000140000000F00000049
S113372C03000000809FD50000800000006CDC02C8
S113373C201500200000000003000000C01300202E
S113374C4410002000000000C013002028140020A6
S113375C9014002000000000000000000000000095
S113376C0000000000000000000000000000000049
S113377C0000000000000000000000000000000039
S113378C0000000000000000000000000000000029
S113379C00000000010A0200000000000109020000
S11337ACFFFFFFFF010101050707030402030204E5
S11337BC0605060D0E0E0E0D0D0D0D0E0E0E0E0D38
S11337CC0D01010507070304020302040605060F95
S11337DC1010100F0F0F0F101010100F0F01010508
S11337EC0707030402030204060506111212121140
S11337FC1111111212121211110101050707030400
S113380C02030204060506131C1C1C131313131CBD
S113381C1C1C1C13130001050706020301030204FC
S113382C0604051D1E1E1E1D1D1D1D1E1E1E1E1DF9
S113383C1D00010507060203010302040604051F0B
S113384C2020201F1F1F1F202020201F1F010105C7
S113385C070703040203020406050621222222217F
S113386C21212122222222212100000045010000D5
S107387C1D01000026
S9030A4DA5
