S0150000436174636854686542616E616E612E7333379A
S113000000100020F10600007D1600007D1600009F
S11300107D1600007D1600007D1600007D16000090
S11300207D1600007D1600007D1600007D16000080
S11300307D1600007D1600007D1600007D16000070
S11300407D1600007D1600007D1600007D16000060
S11300507D1600007D1600007D1600007D16000050
S11300607D1600007D1600007D1600007D16000040
S11300707D1600007D1600007D1600007D16000030
S11300807D1600007D1600007D1600007D16000020
S11300907D1600007D1600007D1600007D16000010
S11300A07D1600007D1600007D1600007D16000000
S11300B07D1600007D1600007D1600007D160000F0
S11300C07D1600007D1600007D1600007D160000E0
S11300D07D1600007D1600007D1600000348044BC9
S11300E0834202D0034B03B118477047E01000204D
S11300F0E0100020000000000548064B1B1AD90F31
S113010001EBA301491002D0034B03B11847704718
S1130110E0100020E01000200000000010B5064CA4
S1130120237843B9FFF7DAFF044B13B10448AFF364
S113013000800123237010BD0A110020000000007C
S11301400C1C000008B5054B1BB105490548AFF36D
S11301500080BDE80840FFF7CFBF00BF00000000EB
S1130160E01000200C1C0000A3F5803A704700BF8B
S1130170174B002B08BF134B9D46FFF7F5FF0021DB
S11301808B460F461348144A121A01F0AEFA0E4B6E
S1130190002B00D098470D4B002B00D0984700202F
S11301A0002104000D000D48002802D00C48AFF3D4
S11301B0008001F001FA2000290001F023FA01F087
S11301C0E9F900BF00000800000000000000000082
S11301D000100020E01000200C110020000000009E
S11301E00000000008B5002000F0DEF8BDE808407B
S11301F0014800F0A5B900BF6017000010B56423E2
S113020003FB0014064B0820197800F085F92046FA
S113021000F020F9BDE81040024800F0CFB900BF5B
S113022010100020FC10002008B500210846FFF73C
S1130230E5FF034A0020937843F00103937008BD5F
S1130240FC100020024A536E0342FCD1704700BFE9
S113025000A0084010B50022284C1046214601F0A9
S113026063F821460022012001F05EF821460022B5
S1130270022001F059F821460022032001F054F82D
S113028021460022042001F04FF8214600220520D7
S113029001F04AF821460022062001F045F82146E3
S11302A00022072001F040F80022FF21104601F04F
S11302B097F80022FF21012001F092F80022FF218B
S11302C0022001F08DF80022FF21032001F088F8BC
S11302D00022FF21042001F083F80022FF210520E1
S11302E001F07EF80022FF21062001F079F8BDE834
S11302F010400022FF21072001F072B800F00FF037
S113030010B5274C00220720264901F00DF821469C
S11303100022062001F008F821460022052001F001
S113032003F821460022042000F0FEFF21460022AB
S1130330032000F0F9FF21460022022000F0F4FF20
S113034021460022012000F0EFFF00224FF020415F
S1130350104600F0E9FF07210022084601F040F8AA
S113036000220721062001F03BF800220721052086
S113037001F036F800220721042001F031F80022B0
S11303800721032001F02CF800220721022001F0AC
S113039027F8BDE8104000220721012001F020B811
S11303A000E00FF000E00F5010B501210446224890
S11303B000F044FC0321214800F0CEFD40212048F8
S11303C000F020FB012000F00FFD01211D4800F08A
S11303D035FC1D4B1D489A6A00229A6200F0CAFE41
S11303E00121082000F0FCFE0121102000F0F8FE9D
S11303F00121802000F0F4FE01214FF4807000F010
S1130400EFFE01214FF4007000F0EAFE64B14FF4F6
S1130410402001F039F84FF4803000F0D3FE0C4A4C
S1130420D36F43F00803D367FFF714FFBDE8104010
S11304304FF0FF30FFF706BFD0433E0002001E001E
S113044080002A0000362C0000A008408417000019
S113045000800C402DE9F84F42F20E739842044696
S11304604BDC294B984204DB002803DB4FF0000AE5
S113047006E01C46204601F034F94FF0010A044618
S113048001254FF0FF30FFF7DDFE204B00271D66EE
S113049001F0C2F84FF00A09BAF1000F01D0032F9E
S11304A030D094FBF5F393FBF9F209FB12339BB2C2
S11304B00E264FF00008164A32F813B0154B06FB0F
S11304C007364BFA08F2D30706D5012296F8CB106B
S11304D096F8C40000F090FE08F10108B8F1070F87
S11304E006F10106EDD10137042F09FB05F5D3D13F
S11304F00022064B1A66BDE8F88F4FF0000A42F25C
S11305000F74BDE71023D3E719FCFFFF00A00840D8
S113051098170000721800000E280A4603468BBF85
S113052000210549084608569CBF0449C95602B132
S1130530012200F061BE00BF7517000066170000BD
S11305402DE9F84F814601F0D8F880464FF0FF308E
S1130550FFF778FE0122164B00241A66FFF7D0FE3F
S1130560144FDFF854A0A045D8BF20233E464FF0D7
S11305700005C8BF19F80430203B3AF813B04BFA11
S113058005F3DB0704D50122B17B307800F034FE9B
S113059001350E2D06F10106F1D10134072C07F1C6
S11305A01C07E0D10022024B1A66BDE8F88F00BF99
S11305B000A0084072180000BA1700002DE9F041AD
S11305C00746124B5C6E002CFCD10122DFF8408000
S11305D01A6646460025334637F8142030782A41F7
S11305E012F0010218BF0122997B013500F004FECC
S11305F00E2D06F10106EED10134072C08F11C087A
S1130600E7D10022014B1A66BDE8F08100A0084042
S11306101110002010B500F071FC01210F4800F00A
S11306200DFB01220020114600F03CFC01220C4C81
S11306301146A36A002023F4803323F0030343F01C
S11306400203A36200F02EFCA36A002023F48013AB
S113065023F00C0343F00803A36210BDD0433E0013
S113066000800C4013B50122164B1A6400F03EFFC3
S1130670044601A800F012FF0F2C12D99DF8043093
S1130680022B0ED99DF80520022A01D1042B08D093
S11306900D4AD2F8C03023F0500343F01003C2F8DF
S11306A0C03000F059FF00F01DF800F0F1FF00F039
S11306B03DFFFFF7AFFF00F029FF02B0BDE8104097
S11306C000F004B800000C4000800C4008B5012183
S11306D0034800F0B3FABDE8084000F0C3BF00BF10
S11306E000D204000121014800F0A8BA00D204009D
S11306F008B500F0B9F8124B12498B4212D300200E
S1130700114B12498B4218D3FFF732FD186850F889
S11307102240586840F82240013298688242F5D35A
S11307200C33EAE70022F8E71C6844F8220001329F
S11307305C68A242F8D30833E4E70022F8E700BF7C
S1130740141C0000201C0000201C0000201C0000C1
S113075000487047006CDC02254AD36A03F47053E6
S1130760B3F5805F3AD0B3F5005F04D0B3F5006F02
S11307700BD1204B00E0204B1B681D4A1068C0F3CE
S113078082300130B3FBF0F07047D36803F4E063C8
S1130790B3F5407F25D008D8B3F5807F0ED0B3F5EC
S11307A0007F20D0A3B10023E7E7B3F5806F1CD00E
S11307B0B3F5A06F114B18BF0023DEE7104B114AAD
S11307C0D3F8FC10104BB1F1985F28BF1346D4E75F
S11307D00B4B0E4AD3F8FC100D4BF4E74FF40043D7
S11307E0CBE70C4BC9E70C4BC7E70C4BC5E700BF85
S11307F000800C400810002004100020003FAB01D2
S11308000081E00F40B56400C0CF6A00804F120041
S113081040420F00809FD500C0D8A700406F400120
S113082008B5FFF799FF044B5B6803F00F03D8404A
S1130830024B186008BD00BF00800C40001000206F
S1130840014B1868704700BF08100020044B186063
S1130850044BDB6A1B0501D5FFF7E2BF704700BFFD
S11308600810002000800C40014A024B9A60704737
S11308700000000000ED00E010B5431EB3F5004F8A
S1130880044604D2B4FA84F0C0F11F0010BD40F64F
S11308909351034800F0F3FE002CF3D12020F3E73A
S11308A0701A0000034B5A6DD20702D41A6D10421D
S11308B0FCD1704700800C4008B500F01FFE4A28A8
S11308C005D0792803D0482818D1104815E01049DC
S11308D00E48D1F8E030D1F8E820D1F8EC101B0232
S11308E003F47C53C1F3031102F0F0020B431343EE
S11308F0084AB3F5017F28BF104608BD064841F2F7
S1130900186100F0BCFE0020F7E700BF0048E801D2
S113091000FF0FE000366E01BB1A000010B504465C
S1130920FFF7CAFFA04207D2FFF7C6FFB4EB400FA0
S11309300ED80122012301E00022134605498B67EA
S113094005494B6823F4807343EA02234B6010BDCE
S11309500222EFE70000904300800C40144B5A68D9
S11309606FF0130302F00702134113F0010F114B50
S113097009D1984217D8104B104A034493422CBF14
S11309800023012308E098420FD80B4B0B4A034481
S1130990934234BF0323022305494A6822F0070225
S11309A013434B6070470423F6E70523F4E700BFC5
S11309B000000C400048E801FFDB0BFF0024F400BA
S11309C038B541F67133064CE56BE363FFF7C0FEBF
S11309D0ADB2FFF7C3FF0DB10023E36338BD00BF21
S11309E000000C4038B541F67133054CE56BE36308
S11309F0ADB2FFF7B3FF0DB10023E36338BD00BF11
S1130A0000000C4010B5C0F30313013B0C460C2B43
S1130A1000F20581DFE813F00D0003010301250056
S1130A200301030144006700D10003010301030132
S1130A3038004C1E072C04D941F67C41794800F05B
S1130A401EFEFFF7BDFF784A136823F4E03343EA40
S1130A5084341460FFF7E4FEBDE810400021FFF782
S1130A60C1BF4B1EB3F5007F04D341F68F416D48DF
S1130A7000F005FE2046FFF7FFFE6B4A936823F063
S1130A800F030343936010BD0846FFF7F5FE664A63
S1130A900138536823F4807343EA00235360F2E778
S1130AA04B1EB3F5007F04D341F6A5415D4800F029
S1130AB0E6FDFFF785FFFFF7B3FEB0FBF4F0FFF7A9
S1130AC02DFF2046FFF7D8FE574A536823F00F0343
S1130AD003435360FFF7A4FE0021FFF783FFBDE843
S1130AE01040FFF71BBF514B98424FD00DD8504BCD
S1130AF0984220D003F58223984232D041F6FE4139
S1130B00BDE81040474800F0BABD4A4B9842F5D1C1
S1130B10082904D941F6F041424800F0B0FD042010
S1130B20FFF7C0FE2046FFF7A7FE3F4A936E23F06F
S1130B300303034313E0B1F5004F04D941F6C34165
S1130B40384800F09CFD0420FFF7ACFE2046FFF778
S1130B5093FE354A936E23F0F00343EA0013936641
S1130B6091E7B1F5004F04D941F6D1412D4800F089
S1130B7086FD0420FFF796FE2046FFF77DFE2A4AF5
S1130B80936E23F4706343EA0023E8E7A1F11003B2
S1130B90702B04D94FF4E751224800F070FD042073
S1130BA0FFF780FE2046FFF767FE1F4A0438936E66
S1130BB023F4405343EA0033D1E71F4B984206D055
S1130BC003F50433984216D041F6245198E70829D6
S1130BD004D941F60751134800F051FD4020FFF7B6
S1130BE061FE2046FFF748FE0F4A136F23F003030C
S1130BF00343136747E7082904D941F61651094806
S1130C0000F03DFD4020FFF74DFE2046FFF734FE87
S1130C10054A136F23F0300343EA0013E9E741F672
S1130C202A516DE7BB1A000000800C4080002A00A6
S1130C308016120080062E0090071A0070B5C0F3CB
S1130C400323013B04460E46092B16D8DFE803F0C4
S1130C50302C051515272015151CFFF7E1FDFFF7AE
S1130C605DFE154DC4F3043405F1424505F58015C8
S1130C7004EBC504A400266070BD41F6B051BDE884
S1130C8070400E4800F0FBBC0D4DC0F30434EBE79C
S1130C90C0F3043410200B4DFFF704FEE4E7C0F367
S1130CA00434094D0120F7E7084DC0F30434DBE7B1
S1130CB0074DC0F30434D7E740800C40BB1A000052
S1130CC078800C4060800C4058800C4044800C407C
S1130CD008800C4008B500F00F00013806284CD8F5
S1130CE0DFE800F00414254B4B333B00294BDB6A4F
S1130CF003F47053B3F5805F4AD0B3F5005F45D079
S1130D00B3F5006F0CBF0420052008BD214B986A81
S1130D1000F003000228F8D0032835D0012837D08A
S1130D209B6A13F4803F0CBF01200A20EDE7194AA7
S1130D30936A03F00C03082B28D00C2B24D0042B2B
S1130D4026D0936A13F4801FEDE7124B1B6813F04F
S1130D50805F0CBF07200920D7E70E4BDB6A03F442
S1130D606033B3F5803F11D0B3F5003F10D0B3F535
S1130D70004F0CBF09200120C7E7074842F20131A8
S1130D8000F07DFC0020C0E70620BEE70220BCE79F
S1130D900320BAE700800C40BB1A000010B50446DB
S1130DA01120FFF797FF042804D142F673210C4861
S1130DB000F065FC08230B4A13621368E17823F4FE
S1130DC0D16323F007030B43617843EA412321787D
S1130DD043EA8103A17843EAC113136010BD00BF45
S1130DE0BB1A000000800C4010B58028044604D9CA
S1130DF042F60D31074800F042FC074A936D1B0789
S1130E0006D4D36F04F0070423F007032343D36706
S1130E1010BD00BFBB1A000000800C4070B5054631
S1130E201120FFF757FF022804D142F62B31144852
S1130E3000F025FC4FF40073124E3362AC786B78EB
S1130E40E40244EA83442B78C3F3400344EA433482
S1130E5000F017FC33685C4024F07F4424F47304EE
S1130E6024F4474424F0FF045C40346000F00DFC9B
S1130E702B78054A03F00103C2F8A03470BD00BF0B
S1130E80BB1A000000800C4000008C43014B18800A
S1130E90704700BF0E100020014B1880704700BF40
S1130EA00C10002030B404280BD80E4B1C5C0E4BE5
S1130EB033F810500D4B33F810000D4B39B918624C
S1130EC00DE042F6F93130BC0A4800F0D8BB1D628F
S1130ED02AB1094B23449B001A68002AFCD030BC79
S1130EE0704700BF1A1B0000101B0000061B000007
S1130EF000800C40BB1A00006001E41008B5FFF745
S1130F00DBFC0130FFF70AFDFFF79AFC104A114B96
S1130F10984213684FF0020096BF23F0600343F039
S1130F20600343F02003136001221146FFF7BAFF68
S1130F30FFF746FD0222064B5A62FFF771FCFFF7EA
S1130F40EDFCFFF76DFCBDE808400021FFF74ABD4A
S1130F5000800C400048E80110B500F00F04631E47
S1130F60062B00F2CD80DFE803F0044E4ECBCB918C
S1130F70A300023908293DD8DFE801F03F42052EDD
S1130F803C3C3C3C3500FFF797FC0130FFF7C6FCC6
S1130F90FFF756FC5C4B5D4A9842136817D943F03F
S1130FA0600302200446136001221146FFF77AFF12
S1130FB0FFF706FD554B5C62FFF732FC0446FFF772
S1130FC0ADFC2046BDE810400021FFF70BBD23F027
S1130FD0600343F02003E4E7FFF76EFC0130FFF702
S1130FE09DFC0320E0E742F22F51BDE81040484841
S1130FF000F045BB42F23451F7E700200424D3E764
S113100001200324D0E7013909292DD8DFE801F0B4
S11310102F05192C2C212C2C2C32012200201146B6
S1131020FFF740FF002302213848022C826A23D1B3
S113103022F4803222F003020A4342EA034282622B
S113104010BD012211461046FFF72CFF0023012199
S1131050EAE7FFF7E5FBFFF761FC01222D4B0321D3
S1131060C3F810280023DFE742F2DD51BDE7002377
S11310700021D9E70123FBE71B0522F4801243EA90
S1131080810322F00C0213438362D9E7072904D0B9
S1131090092908D042F23861A7E71C4A136823F0F3
S11310A080531360CCE7194A136843F08053F8E780
S11310B003290FD0092919D002291ED101220020A9
S11310C01146FFF7EFFE4022104B5A62DA6AD00352
S11310D0FCD5B5E7012211461046FFF7E3FE602276
S11310E00A4B5A62DA6A9103FCD5A9E72022074B1E
S11310F05A62DA6A1204FCD5A2E742F2776174E715
S113110042F26D7171E700BF0048E80100800C40B5
S1131110BB1A00000000904310B504798378094994
S113112023430478CA6A43EA0443C478407822F427
S1131130803243EA440322F01F0243EA00131343BC
S1131140CB6210BD00600C4070B51F2905460C46EB
S1131150164603D99121064800F091FA05F1424060
S113116000F5801004EBC004A400266070BD00BF2D
S11311701F1B000070B5114D04466E6818B9462156
S11311800F4800F07CFA2B68E26823F001032B601F
S11311906368134326F4830222F01F021343227A66
S11311A01343627A1A43238A13436B6023781BB177
S11311B02B6843F001032B6070BD00BF00A0084002
S11311C06A1B0000054AB0F5803F536823F480335E
S11311D008BF43F480335360704700BF00A0084049
S11311E0044B9A6811B102439A60704722EA0002E4
S11311F0FAE700BF00A0084037B5072805460C46AB
S113120013DD40F22721374800F039FA272C04DD9A
S113121040F22E21334800F032FA4FF4267131485F
S113122003B0BDE8304000F02ABA27290EDD40F2B1
S11312302E212C48019200F022FA019A072DECD8B5
S1131240DFE805F0141C242C343C444C0728E4D873
S1131250DFE800F004101820283038401F2905DC8E
S1131260214803B0BDE83040FFF76EBF1F48A4F12A
S11312702001F6E71F2901DC1D48F2E71D48A4F10F
S11312802001EEE71F2901DC1B48EAE71B48A4F113
S11312902001E6E71F2901DC1948E2E71948A4F117
S11312A02001DEE71F2901DC1748DAE71748A4F11B
S11312B02001D6E71F2901DC1548D2E71548A4F11F
S11312C02001CEE71F2901DC1348CAE71348A4F123
S11312D02001C6E71F2901DC1148C2E71148A4F127
S11312E02001BEE76A1B000040A0084050A008404F
S11312F044A0084054A0084048A0084058A0084012
S11313004CA008405CA00840CCA00840B4A0084011
S1131310D0A00840B8A00840D4A00840BCA0084011
S1131320D8A00840C0A0084008B507280BDD40F24B
S11313300331294800F0A3F9BDE8084040F24331E5
S1131340254800F09CB90728F6D8DFE800F0040B24
S113135012192029323B214B186C42400A4042406A
S11313601A6408BD1D4B586C42400A4042405A64FE
S1131370F7E71A4B986C42400A4042409A64F0E7FF
S1131380164BD86C42400A404240DA64E9E7134BFA
S1131390D3F8CC0042400A404240C3F8CC20E0E7F6
S11313A00E4BD3F8D00042400A404240C3F8D0204C
S11313B0D7E70A4BD3F8D40042400A404240C3F86E
S11313C0D420CEE7054BD3F8D80042400A4042402F
S11313D0C3F8D820C5E700BF6A1B000000A008407E
S11313E0072804DD4FF45771254800F048B9072851
S11313F044D8DFE800F0040B12192029323B214BBA
S1131400186D42400A4042401A6570471D4B586DA2
S113141042400A4042405A6570471A4B986D424018
S11314200A4042409A657047164BD86D42400A40C4
S11314304240DA657047134BD3F8B40042400A4087
S11314404240C3F8B42070470E4BD3F8B800424072
S11314500A404240C3F8B82070470A4BD3F8BC0096
S113146042400A404240C3F8BC207047054BD3F8C1
S1131470C00042400A404240C3F8C020704700BF49
S11314806A1B000000A00840034A536823F4E013D9
S113149003435360704700BF00A0084010B50446E2
S11314A018B957210F4800F0EAF80F4AD2F8E4308F
S11314B0D2F8E0109B0003F03C03C1F381110B430D
S11314C0A370D2F8E03003F03F036370D2F8E83041
S11314D0D2F8EC2003F0F003C2F303121343237099
S11314E010BD00BFB51B000000FF0FE0024BD3F896
S11314F0FC00000E704700BF0081E00F024BD3F8E0
S1131500FC00C0F3074070470081E00F07B5064BAD
S113151018681B79009068468DF80430FFF7FCFDCD
S1131520002003B05DF804FB031C000007B5084B62
S1131530186801900748FFF789F901A8FFF72EFC06
S11315403220FFF7A9FC002003B05DF804FB00BFC4
S1131550081C0000006CDC0210B56FF00403A0212D
S11315600A480B4C13F0800F03F1010207D1234406
S1131570272A83F800131346F4D1002010BD03F08A
S11315800F03043B034419761346EBE700ED00E038
S113159000E100E008B5064B044613B10021AFF3A7
S11315A00080044B1B6803B19847204600F068F89C
S11315B000000000F810002070B500260C4D0D4C02
S11315C0641BA410A64209D100F0AAF800260A4D13
S11315D00A4C641BA410A64205D170BD55F8043B07
S11315E098470136EEE755F8043B98470136F2E791
S11315F0D8100020D8100020D8100020DC100020C3
S1131600FEF712BE08B500F054F8FEF7EBFD00F04B
S11316105DF8FFF7F5FFFAE708B50022782101200D
S1131620FFF7DEFE002278210220FFF7D9FE002218
S113163078210320FFF7D4FE002278210420FFF74D
S1131640CFFE002278210520FFF7CAFE0022782170
S11316500620FFF7C5FEBDE80840002278210720D8
S1131660FFF7BEBE7047704700F006B8704770477A
S113167070477047704770470F207047FEE7FEE7DA
S1131680FEE7EFF3108072B6704700B962B6704798
S113169013B54FF44073002401A8ADF804308DF85D
S11316A00640FFF7BBFB3220FFF7F0FB204602B0F9
S11316B010BD08B5FEF7D6FFFFF7D5FFFFF7D4FF3F
S11316C0FFF7D4FFBDE80840FFF7D1BF08B5FFF727
S11316D0CFFFFFF7CEFFFFF7CDFFBDE80840FFF7D0
S11316E0CABF0028B8BF4042704703460244934231
S11316F000D1704703F8011BF9E7034613F8012BE7
S1131700002AFBD1181A01387047000000000000BD
S113171000000000000000000000000000000000C5
S1131720F8B500BFF8BC08BC9E467047F8B500BFCA
S1131730F8BC08BC9E467047000000000000000092
S11317400000000000000000000000000000000095
S11317500000000000000000000000000000000085
S113176048656C6C6F000C20270C1C0C0C1E272287
S1131770230C0C0C1D0100030200030400050000EF
S11317800705060701000000030040000C000000EC
S113179000000000000000003F0006005B004F0056
S11317A066006D007D0007007F006F0077007C00FD
S11317B039005E00790071004000000000118002D1
S11317C00000000002060000200039000F000000A5
S11317D0401500204004001000223F0006005B0476
S11317E04F0466046D047D0407007F046F04000049
S11317F00000000A000080200000FFFF7704790A3F
S11318003900B020790071007D04760406000E00D2
S1131810700A3800B602B6083F0073043F08730C20
S11318206D0401113E0030223628802A6E040922FC
S1131830390080080F0001000800000158107C04E2
S113184058005E04582071040C0C740404000E004B
S1131850700C3800541454045C047304670450047A
S1131860080C78001C0010201428802A0C0848203A
S1131870000001010507070304020302040605062C
S11318800D0E0E0E0D0D0D0D0E0E0E0E0D0D010195
S11318900507070304020302040605060F101010CF
S11318A00F0F0F0F101010100F0F01010507070382
S11318B00402030204060506111212121111111179
S11318C01212121211110101050707030402030287
S11318D004060506131C1C1C131313131C1C1C1CCC
S11318E0131300010507060203010302040604059D
S11318F01D1E1E1E1D1D1D1D1E1E1E1E1D1D000146
S11319000507060203010302040604051F20202024
S11319101F1F1F1F202020201F1F01010507070371
S11319200402030204060506212222222121212188
S11319302222222221210705020103060423232354
S11319402323232307050201030604242424242437
S1131950242407050201030604252525252525251C
S1131960070502010306042626262626262600014C
S11319700702062727272727000000000000000091
S1131980131211100F0E0D0C000000002125242647
S113199001010304040203020D0E0D0D0E0D0E0EC3
S11319A001010304040203020F100F0F100F1010A3
S11319B00101030404020302111211111211121283
S11319C00101030404020302131C13131C131C1C43
S11319D000010203040103021D1E1D1D1E1D1E1E07
S11319E000010203040103021F201F1F201F2020E7
S11319F001010304040203022122212122212222C3
S1131A0005070704040605060E0E0D0D0E0E0D0D3A
S1131A10050707040406050610100F0F10100F0F1A
S1131A2005070704040605061212111112121111FA
S1131A3005070704040605061C1C13131C1C1313BA
S1131A4005070603040604051E1E1D1D1E1E1D1D7E
S1131A50050706030406040520201F1F20201F1F5E
S1131A60050707040406050622222121222221213A
S1131A70633A5C75736572735C6B697363685C73FA
S1131A80696D706C696369747973747564696F5C8A
S1131A9073646B735C6765636B6F5F73646B5C70BB
S1131AA06C6174666F726D5C656D6C69625C696EA5
S1131AB0635C656D5F636D752E6800433A2F5573E3
S1131AC06572732F6B697363682F53696D706C69EA
S1131AD06369747953747564696F2F53444B732F1E
S1131AE06765636B6F5F73646B2F706C6174666F93
S1131AF0726D2F656D6C69622F7372632F656D5FF4
S1131B00636D752E6300000280000800020020004F
S1131B1000014000040001001000090703010563EF
S1131B203A5C75736572735C6B697363685C736943
S1131B306D706C696369747973747564696F5C73CF
S1131B40646B735C6765636B6F5F73646B5C706C11
S1131B506174666F726D5C656D6C69625C696E63FD
S1131B605C656D5F6275732E6800433A2F5573652B
S1131B7072732F6B697363682F53696D706C69633B
S1131B8069747953747564696F2F53444B732F6769
S1131B9065636B6F5F73646B2F706C6174666F72D7
S1131BA06D2F656D6C69622F7372632F656D5F6C49
S1131BB063642E6300433A2F55736572732F6B6908
S1131BC07363682F53696D706C69636974795374B6
S1131BD07564696F2F53444B732F6765636B6F5F35
S1131BE073646B2F706C6174666F726D2F656D6CAE
S1131BF069622F7372632F656D5F73797374656D9A
S10F1C002E63000000000101030300003B
S10B1C0C5CE5FF7F010000000C
S10F1C14201C000000100020380000001C
S1131C20809FD50000800000006CDC02FFFFFFFFF6
S1131C300101010507070304020302040605060D5A
S1131C400E0E0E0D0D0D0D0E0E0E0E0D0D010105D9
S1131C5007070304020302040605060F1010100F01
S1131C600F0F0F101010100F0F01010507070304C9
S1131C7002030204060506111212121111111112A7
S1131C8012121211110101050707030402030204D1
S1131C90060506131C1C1C131313131C1C1C1C13F9
S1131CA01300010507060203010302040604051DCF
S1131CB01E1E1E1D1D1D1D1E1E1E1E1D1D0001059A
S1131CC007060203010302040604051F2020201F47
S1131CD01F1F1F202020201F1F01010507070304C9
S1131CE002030204060506212222222121212122A7
S1131CF02222222121000000450100001D010000D4
S90306F105
